{
  "contractName": "Voting",
  "abi": [
    {
      "inputs": [],
      "stateMutability": "nonpayable",
      "type": "constructor"
    },
    {
      "anonymous": false,
      "inputs": [
        {
          "indexed": true,
          "internalType": "uint256",
          "name": "electionId",
          "type": "uint256"
        },
        {
          "indexed": true,
          "internalType": "uint256",
          "name": "candidateId",
          "type": "uint256"
        },
        {
          "indexed": false,
          "internalType": "string",
          "name": "name",
          "type": "string"
        },
        {
          "indexed": false,
          "internalType": "string",
          "name": "seat",
          "type": "string"
        }
      ],
      "name": "CandidateAdded",
      "type": "event"
    },
    {
      "anonymous": false,
      "inputs": [
        {
          "indexed": true,
          "internalType": "uint256",
          "name": "electionId",
          "type": "uint256"
        }
      ],
      "name": "CandidateListLocked",
      "type": "event"
    },
    {
      "anonymous": false,
      "inputs": [
        {
          "indexed": true,
          "internalType": "uint256",
          "name": "electionId",
          "type": "uint256"
        },
        {
          "indexed": false,
          "internalType": "string",
          "name": "title",
          "type": "string"
        }
      ],
      "name": "ElectionCreated",
      "type": "event"
    },
    {
      "anonymous": false,
      "inputs": [
        {
          "indexed": true,
          "internalType": "uint256",
          "name": "electionId",
          "type": "uint256"
        },
        {
          "indexed": false,
          "internalType": "enum Voting.ElectionStatus",
          "name": "oldStatus",
          "type": "uint8"
        },
        {
          "indexed": false,
          "internalType": "enum Voting.ElectionStatus",
          "name": "newStatus",
          "type": "uint8"
        }
      ],
      "name": "ElectionStatusChanged",
      "type": "event"
    },
    {
      "anonymous": false,
      "inputs": [
        {
          "indexed": true,
          "internalType": "uint256",
          "name": "electionId",
          "type": "uint256"
        },
        {
          "indexed": false,
          "internalType": "string",
          "name": "resultsHash",
          "type": "string"
        }
      ],
      "name": "TallyFinalized",
      "type": "event"
    },
    {
      "anonymous": false,
      "inputs": [
        {
          "indexed": true,
          "internalType": "uint256",
          "name": "electionId",
          "type": "uint256"
        },
        {
          "indexed": true,
          "internalType": "uint256",
          "name": "candidateId",
          "type": "uint256"
        },
        {
          "indexed": true,
          "internalType": "address",
          "name": "voter",
          "type": "address"
        }
      ],
      "name": "VoteCast",
      "type": "event"
    },
    {
      "anonymous": false,
      "inputs": [
        {
          "indexed": true,
          "internalType": "uint256",
          "name": "electionId",
          "type": "uint256"
        },
        {
          "indexed": true,
          "internalType": "address",
          "name": "voter",
          "type": "address"
        }
      ],
      "name": "VoterRegistered",
      "type": "event"
    },
    {
      "anonymous": false,
      "inputs": [
        {
          "indexed": true,
          "internalType": "uint256",
          "name": "electionId",
          "type": "uint256"
        },
        {
          "indexed": false,
          "internalType": "bool",
          "name": "enabled",
          "type": "bool"
        }
      ],
      "name": "VotingToggled",
      "type": "event"
    },
    {
      "inputs": [],
      "name": "electionsCount",
      "outputs": [
        {
          "internalType": "uint256",
          "name": "",
          "type": "uint256"
        }
      ],
      "stateMutability": "view",
      "type": "function",
      "constant": true
    },
    {
      "inputs": [],
      "name": "owner",
      "outputs": [
        {
          "internalType": "address",
          "name": "",
          "type": "address"
        }
      ],
      "stateMutability": "view",
      "type": "function",
      "constant": true
    },
    {
      "inputs": [],
      "name": "version",
      "outputs": [
        {
          "internalType": "uint256",
          "name": "",
          "type": "uint256"
        }
      ],
      "stateMutability": "view",
      "type": "function",
      "constant": true
    },
    {
      "inputs": [
        {
          "internalType": "string",
          "name": "_title",
          "type": "string"
        },
        {
          "internalType": "string",
          "name": "_description",
          "type": "string"
        },
        {
          "internalType": "uint256",
          "name": "_startsAt",
          "type": "uint256"
        },
        {
          "internalType": "uint256",
          "name": "_endsAt",
          "type": "uint256"
        }
      ],
      "name": "createElection",
      "outputs": [
        {
          "internalType": "uint256",
          "name": "",
          "type": "uint256"
        }
      ],
      "stateMutability": "nonpayable",
      "type": "function"
    },
    {
      "inputs": [
        {
          "internalType": "uint256",
          "name": "_electionId",
          "type": "uint256"
        },
        {
          "internalType": "enum Voting.ElectionStatus",
          "name": "_newStatus",
          "type": "uint8"
        }
      ],
      "name": "changeElectionStatus",
      "outputs": [],
      "stateMutability": "nonpayable",
      "type": "function"
    },
    {
      "inputs": [
        {
          "internalType": "uint256",
          "name": "_electionId",
          "type": "uint256"
        },
        {
          "internalType": "bool",
          "name": "_enabled",
          "type": "bool"
        }
      ],
      "name": "toggleVoting",
      "outputs": [],
      "stateMutability": "nonpayable",
      "type": "function"
    },
    {
      "inputs": [
        {
          "internalType": "uint256",
          "name": "_electionId",
          "type": "uint256"
        },
        {
          "internalType": "address",
          "name": "_voter",
          "type": "address"
        }
      ],
      "name": "registerVoter",
      "outputs": [],
      "stateMutability": "nonpayable",
      "type": "function"
    },
    {
      "inputs": [
        {
          "internalType": "uint256",
          "name": "_electionId",
          "type": "uint256"
        },
        {
          "internalType": "address[]",
          "name": "_voters",
          "type": "address[]"
        }
      ],
      "name": "registerVoters",
      "outputs": [],
      "stateMutability": "nonpayable",
      "type": "function"
    },
    {
      "inputs": [
        {
          "internalType": "uint256",
          "name": "_electionId",
          "type": "uint256"
        },
        {
          "internalType": "string",
          "name": "_name",
          "type": "string"
        },
        {
          "internalType": "string",
          "name": "_seat",
          "type": "string"
        },
        {
          "internalType": "string",
          "name": "_nameHash",
          "type": "string"
        }
      ],
      "name": "addCandidate",
      "outputs": [],
      "stateMutability": "nonpayable",
      "type": "function"
    },
    {
      "inputs": [
        {
          "internalType": "uint256",
          "name": "_electionId",
          "type": "uint256"
        }
      ],
      "name": "lockCandidateList",
      "outputs": [],
      "stateMutability": "nonpayable",
      "type": "function"
    },
    {
      "inputs": [
        {
          "internalType": "uint256",
          "name": "_electionId",
          "type": "uint256"
        },
        {
          "internalType": "uint256",
          "name": "_candidateId",
          "type": "uint256"
        }
      ],
      "name": "castVote",
      "outputs": [],
      "stateMutability": "nonpayable",
      "type": "function"
    },
    {
      "inputs": [
        {
          "internalType": "uint256",
          "name": "_electionId",
          "type": "uint256"
        },
        {
          "internalType": "string",
          "name": "_resultsHash",
          "type": "string"
        }
      ],
      "name": "finalizeTally",
      "outputs": [],
      "stateMutability": "nonpayable",
      "type": "function"
    },
    {
      "inputs": [
        {
          "internalType": "uint256",
          "name": "_electionId",
          "type": "uint256"
        }
      ],
      "name": "getElection",
      "outputs": [
        {
          "internalType": "uint256",
          "name": "id",
          "type": "uint256"
        },
        {
          "internalType": "string",
          "name": "title",
          "type": "string"
        },
        {
          "internalType": "string",
          "name": "description",
          "type": "string"
        },
        {
          "internalType": "uint256",
          "name": "startsAt",
          "type": "uint256"
        },
        {
          "internalType": "uint256",
          "name": "endsAt",
          "type": "uint256"
        },
        {
          "internalType": "uint256[]",
          "name": "candidateIds",
          "type": "uint256[]"
        }
      ],
      "stateMutability": "view",
      "type": "function",
      "constant": true
    },
    {
      "inputs": [
        {
          "internalType": "uint256",
          "name": "_electionId",
          "type": "uint256"
        }
      ],
      "name": "getElectionDetails",
      "outputs": [
        {
          "internalType": "uint256",
          "name": "id",
          "type": "uint256"
        },
        {
          "internalType": "string",
          "name": "title",
          "type": "string"
        },
        {
          "internalType": "string",
          "name": "description",
          "type": "string"
        },
        {
          "internalType": "uint256",
          "name": "startsAt",
          "type": "uint256"
        },
        {
          "internalType": "uint256",
          "name": "endsAt",
          "type": "uint256"
        },
        {
          "internalType": "uint256[]",
          "name": "candidateIds",
          "type": "uint256[]"
        },
        {
          "internalType": "string[]",
          "name": "names",
          "type": "string[]"
        },
        {
          "internalType": "string[]",
          "name": "seats",
          "type": "string[]"
        },
        {
          "internalType": "uint256[]",
          "name": "voteCounts",
          "type": "uint256[]"
        }
      ],
      "stateMutability": "view",
      "type": "function",
      "constant": true
    },
    {
      "inputs": [
        {
          "internalType": "uint256",
          "name": "_electionId",
          "type": "uint256"
        },
        {
          "internalType": "uint256",
          "name": "_candidateId",
          "type": "uint256"
        }
      ],
      "name": "getCandidate",
      "outputs": [
        {
          "internalType": "uint256",
          "name": "id",
          "type": "uint256"
        },
        {
          "internalType": "string",
          "name": "name",
          "type": "string"
        },
        {
          "internalType": "uint256",
          "name": "voteCount",
          "type": "uint256"
        }
      ],
      "stateMutability": "view",
      "type": "function",
      "constant": true
    },
    {
      "inputs": [
        {
          "internalType": "uint256",
          "name": "_electionId",
          "type": "uint256"
        },
        {
          "internalType": "address",
          "name": "_voter",
          "type": "address"
        }
      ],
      "name": "hasVotedIn",
      "outputs": [
        {
          "internalType": "bool",
          "name": "",
          "type": "bool"
        }
      ],
      "stateMutability": "view",
      "type": "function",
      "constant": true
    },
    {
      "inputs": [
        {
          "internalType": "uint256",
          "name": "_electionId",
          "type": "uint256"
        },
        {
          "internalType": "address",
          "name": "_voter",
          "type": "address"
        }
      ],
      "name": "isVoterRegistered",
      "outputs": [
        {
          "internalType": "bool",
          "name": "",
          "type": "bool"
        }
      ],
      "stateMutability": "view",
      "type": "function",
      "constant": true
    },
    {
      "inputs": [
        {
          "internalType": "uint256",
          "name": "_electionId",
          "type": "uint256"
        }
      ],
      "name": "getTurnoutStats",
      "outputs": [
        {
          "internalType": "uint256",
          "name": "totalVotes",
          "type": "uint256"
        },
        {
          "internalType": "uint256",
          "name": "registeredVoters",
          "type": "uint256"
        }
      ],
      "stateMutability": "view",
      "type": "function",
      "constant": true
    },
    {
      "inputs": [
        {
          "internalType": "uint256",
          "name": "_electionId",
          "type": "uint256"
        }
      ],
      "name": "getFinalResults",
      "outputs": [
        {
          "internalType": "string",
          "name": "resultsHash",
          "type": "string"
        },
        {
          "internalType": "bool",
          "name": "isFinalized",
          "type": "bool"
        }
      ],
      "stateMutability": "view",
      "type": "function",
      "constant": true
    },
    {
      "inputs": [
        {
          "internalType": "uint256",
          "name": "_electionId",
          "type": "uint256"
        }
      ],
      "name": "getElectionStatus",
      "outputs": [
        {
          "internalType": "enum Voting.ElectionStatus",
          "name": "status",
          "type": "uint8"
        },
        {
          "internalType": "bool",
          "name": "votingEnabled",
          "type": "bool"
        },
        {
          "internalType": "bool",
          "name": "candidateListLocked",
          "type": "bool"
        }
      ],
      "stateMutability": "view",
      "type": "function",
      "constant": true
    },
    {
      "inputs": [
        {
          "internalType": "uint256",
          "name": "_electionId",
          "type": "uint256"
        }
      ],
      "name": "getRegisteredVotersCount",
      "outputs": [
        {
          "internalType": "uint256",
          "name": "",
          "type": "uint256"
        }
      ],
      "stateMutability": "view",
      "type": "function",
      "constant": true
    }
  ],
  "bytecode": "0x60806040526002600355348015610014575f80fd5b503360025f6101000a81548173ffffffffffffffffffffffffffffffffffffffff021916908373ffffffffffffffffffffffffffffffffffffffff160217905550613a38806100625f395ff3fe608060405234801561000f575f80fd5b5060043610610135575f3560e01c806354fd4d50116100b657806394c790bb1161007a57806394c790bb146103875780639a74c695146103a35780639d710777146103c1578063ce4a2743146103f6578063d16dd9af14610412578063f60499241461042e57610135565b806354fd4d50146102e3578063649c025c1461030157806368e49d891461031d5780637ad36e84146103395780638da5cb5b1461036957610135565b8063394eaa8f116100fd578063394eaa8f146102035780634495a353146102335780634bd46448146102645780634bfcd4e01461029657806352ba6e4b146102c757610135565b8063047a2cc4146101395780630973389c14610155578063190c08081461018557806324785b9e146101b55780632c0a3f89146101e7575b5f80fd5b610153600480360381019061014e91906126ff565b610466565b005b61016f600480360381019061016a91906127b3565b6106a3565b60405161017c919061280b565b60405180910390f35b61019f600480360381019061019a9190612824565b610766565b6040516101ac919061285e565b60405180910390f35b6101cf60048036038101906101ca9190612824565b6107e4565b6040516101de939291906128ea565b60405180910390f35b61020160048036038101906101fc919061291f565b61089d565b005b61021d600480360381019061021891906127b3565b610cb1565b60405161022a919061280b565b60405180910390f35b61024d60048036038101906102489190612824565b610d74565b60405161025b9291906129d7565b60405180910390f35b61027e6004803603810190610279919061291f565b610eb9565b60405161028d93929190612a05565b60405180910390f35b6102b060048036038101906102ab9190612824565b610feb565b6040516102be929190612a41565b60405180910390f35b6102e160048036038101906102dc9190612a8b565b611076565b005b6102eb6112c1565b6040516102f8919061285e565b60405180910390f35b61031b60048036038101906103169190612824565b6112c7565b005b61033760048036038101906103329190612af3565b611418565b005b610353600480360381019061034e9190612b31565b611574565b604051610360919061285e565b60405180910390f35b610371611738565b60405161037e9190612bdc565b60405180910390f35b6103a1600480360381019061039c91906127b3565b61175d565b005b6103ab61198c565b6040516103b8919061285e565b60405180910390f35b6103db60048036038101906103d69190612824565b611992565b6040516103ed96959493929190612cac565b60405180910390f35b610410600480360381019061040b9190612d20565b611ba0565b005b61042c60048036038101906104279190612e9c565b611e3a565b005b61044860048036038101906104439190612824565b61209b565b60405161045d99989796959493929190612ff9565b60405180910390f35b60025f9054906101000a900473ffffffffffffffffffffffffffffffffffffffff1673ffffffffffffffffffffffffffffffffffffffff163373ffffffffffffffffffffffffffffffffffffffff16146104f5576040517f08c379a00000000000000000000000000000000000000000000000000000000081526004016104ec906130f8565b60405180910390fd5b815f808281526020019081526020015f20600a015f9054906101000a900460ff16610555576040517f08c379a000000000000000000000000000000000000000000000000000000000815260040161054c90613160565b60405180910390fd5b5f805f8581526020019081526020015f2090506002600381111561057c5761057b612877565b5b81600a0160019054906101000a900460ff1660038111156105a05761059f612877565b5b146105e0576040517f08c379a00000000000000000000000000000000000000000000000000000000081526004016105d7906131ee565b60405180910390fd5b80600401544211610626576040517f08c379a000000000000000000000000000000000000000000000000000000000815260040161061d90613256565b60405180910390fd5b600381600a0160016101000a81548160ff0219169083600381111561064e5761064d612877565b5b02179055508281600c019081610664919061346e565b50837f8ce938525f6bc8fbb2b2d95dcdd58b1a02bc490ef644e861d6ba87d825e01bb184604051610695919061353d565b60405180910390a250505050565b5f805f8481526020019081526020015f20600a015f9054906101000a900460ff16610703576040517f08c379a00000000000000000000000000000000000000000000000000000000081526004016106fa90613160565b60405180910390fd5b5f808481526020019081526020015f206007015f8373ffffffffffffffffffffffffffffffffffffffff1673ffffffffffffffffffffffffffffffffffffffff1681526020019081526020015f205f9054906101000a900460ff16905092915050565b5f805f8381526020019081526020015f20600a015f9054906101000a900460ff166107c6576040517f08c379a00000000000000000000000000000000000000000000000000000000081526004016107bd90613160565b60405180910390fd5b5f808381526020019081526020015f20600501805490509050919050565b5f805f805f8581526020019081526020015f20600a015f9054906101000a900460ff16610846576040517f08c379a000000000000000000000000000000000000000000000000000000000815260040161083d90613160565b60405180910390fd5b5f805f8681526020019081526020015f20905080600a0160019054906101000a900460ff1681600a0160039054906101000a900460ff1682600a0160029054906101000a900460ff16935093509350509193909250565b815f808281526020019081526020015f20600a015f9054906101000a900460ff166108fd576040517f08c379a00000000000000000000000000000000000000000000000000000000081526004016108f490613160565b60405180910390fd5b825f808281526020019081526020015f206008015f3373ffffffffffffffffffffffffffffffffffffffff1673ffffffffffffffffffffffffffffffffffffffff1681526020019081526020015f205f9054906101000a900460ff16610998576040517f08c379a000000000000000000000000000000000000000000000000000000000815260040161098f906135a7565b60405180910390fd5b5f805f8681526020019081526020015f20905080600a0160039054906101000a900460ff166109fc576040517f08c379a00000000000000000000000000000000000000000000000000000000081526004016109f39061360f565b60405180910390fd5b806007015f3373ffffffffffffffffffffffffffffffffffffffff1673ffffffffffffffffffffffffffffffffffffffff1681526020019081526020015f205f9054906101000a900460ff1615610a88576040517f08c379a0000000000000000000000000000000000000000000000000000000008152600401610a7f90613677565b60405180910390fd5b5f84118015610a9b575080600901548411155b610ada576040517f08c379a0000000000000000000000000000000000000000000000000000000008152600401610ad1906136df565b60405180910390fd5b806006015f8581526020019081526020015f206004015f9054906101000a900460ff16610b3c576040517f08c379a0000000000000000000000000000000000000000000000000000000008152600401610b3390613747565b60405180910390fd5b8060030154421015610b83576040517f08c379a0000000000000000000000000000000000000000000000000000000008152600401610b7a906137af565b60405180910390fd5b8060040154421115610bca576040517f08c379a0000000000000000000000000000000000000000000000000000000008152600401610bc190613817565b60405180910390fd5b6001816007015f3373ffffffffffffffffffffffffffffffffffffffff1673ffffffffffffffffffffffffffffffffffffffff1681526020019081526020015f205f6101000a81548160ff021916908315150217905550806006015f8581526020019081526020015f206003015f815480929190610c4790613862565b919050555080600b015f815480929190610c6090613862565b91905055503373ffffffffffffffffffffffffffffffffffffffff1684867f7fe1d4e6b34e228b5dc059fcdc037c71b216fb2417f47c171e505144a5e4f5fc60405160405180910390a45050505050565b5f805f8481526020019081526020015f20600a015f9054906101000a900460ff16610d11576040517f08c379a0000000000000000000000000000000000000000000000000000000008152600401610d0890613160565b60405180910390fd5b5f808481526020019081526020015f206008015f8373ffffffffffffffffffffffffffffffffffffffff1673ffffffffffffffffffffffffffffffffffffffff1681526020019081526020015f205f9054906101000a900460ff16905092915050565b60605f805f8481526020019081526020015f20600a015f9054906101000a900460ff16610dd6576040517f08c379a0000000000000000000000000000000000000000000000000000000008152600401610dcd90613160565b60405180910390fd5b5f805f8581526020019081526020015f20905080600c01600380811115610e0057610dff612877565b5b82600a0160019054906101000a900460ff166003811115610e2457610e23612877565b5b14818054610e31906132a1565b80601f0160208091040260200160405190810160405280929190818152602001828054610e5d906132a1565b8015610ea85780601f10610e7f57610100808354040283529160200191610ea8565b820191905f5260205f20905b815481529060010190602001808311610e8b57829003601f168201915b505050505091509250925050915091565b5f60605f805f8681526020019081526020015f20600a015f9054906101000a900460ff16610f1c576040517f08c379a0000000000000000000000000000000000000000000000000000000008152600401610f1390613160565b60405180910390fd5b5f805f8781526020019081526020015f2090505f816006015f8781526020019081526020015f209050805f0154816001018260030154818054610f5e906132a1565b80601f0160208091040260200160405190810160405280929190818152602001828054610f8a906132a1565b8015610fd55780601f10610fac57610100808354040283529160200191610fd5565b820191905f5260205f20905b815481529060010190602001808311610fb857829003601f168201915b5050505050915094509450945050509250925092565b5f805f808481526020019081526020015f20600a015f9054906101000a900460ff1661104c576040517f08c379a000000000000000000000000000000000000000000000000000000000815260040161104390613160565b60405180910390fd5b5f805f8581526020019081526020015f20905080600b015481600501805490509250925050915091565b60025f9054906101000a900473ffffffffffffffffffffffffffffffffffffffff1673ffffffffffffffffffffffffffffffffffffffff163373ffffffffffffffffffffffffffffffffffffffff1614611105576040517f08c379a00000000000000000000000000000000000000000000000000000000081526004016110fc906130f8565b60405180910390fd5b815f808281526020019081526020015f20600a015f9054906101000a900460ff16611165576040517f08c379a000000000000000000000000000000000000000000000000000000000815260040161115c90613160565b60405180910390fd5b5f805f8581526020019081526020015f2090505f81600a0160019054906101000a900460ff1690508382600a0160016101000a81548160ff021916908360038111156111b4576111b3612877565b5b0217905550600160038111156111cd576111cc612877565b5b8460038111156111e0576111df612877565b5b0361120757600182600a0160036101000a81548160ff021916908315150217905550611280565b6002600381111561121b5761121a612877565b5b84600381111561122e5761122d612877565b5b148061125d575060038081111561124857611247612877565b5b84600381111561125b5761125a612877565b5b145b1561127f575f82600a0160036101000a81548160ff0219169083151502179055505b5b847f12b37df6c3e196249962cd4347a3d9d9e6444d63d7f1bd286129f93ca919fb3d82866040516112b29291906138a9565b60405180910390a25050505050565b60035481565b60025f9054906101000a900473ffffffffffffffffffffffffffffffffffffffff1673ffffffffffffffffffffffffffffffffffffffff163373ffffffffffffffffffffffffffffffffffffffff1614611356576040517f08c379a000000000000000000000000000000000000000000000000000000000815260040161134d906130f8565b60405180910390fd5b805f808281526020019081526020015f20600a015f9054906101000a900460ff166113b6576040517f08c379a00000000000000000000000000000000000000000000000000000000081526004016113ad90613160565b60405180910390fd5b5f805f8481526020019081526020015f209050600181600a0160026101000a81548160ff021916908315150217905550827f2eefe56f7faacb0d846466adf55e5c96fb04711e5bef3d4cca6b55227db1949360405160405180910390a2505050565b60025f9054906101000a900473ffffffffffffffffffffffffffffffffffffffff1673ffffffffffffffffffffffffffffffffffffffff163373ffffffffffffffffffffffffffffffffffffffff16146114a7576040517f08c379a000000000000000000000000000000000000000000000000000000000815260040161149e906130f8565b60405180910390fd5b815f808281526020019081526020015f20600a015f9054906101000a900460ff16611507576040517f08c379a00000000000000000000000000000000000000000000000000000000081526004016114fe90613160565b60405180910390fd5b5f805f8581526020019081526020015f2090508281600a0160036101000a81548160ff021916908315150217905550837fa731f1e7a0b91d06c508540643535e3e431df9a04f49e03ee8f2140ec80e254184604051611566919061280b565b60405180910390a250505050565b5f60025f9054906101000a900473ffffffffffffffffffffffffffffffffffffffff1673ffffffffffffffffffffffffffffffffffffffff163373ffffffffffffffffffffffffffffffffffffffff1614611604576040517f08c379a00000000000000000000000000000000000000000000000000000000081526004016115fb906130f8565b60405180910390fd5b60015f81548092919061161690613862565b91905055505f805f60015481526020019081526020015f209050600154815f01819055508581600101908161164b919061346e565b508481600201908161165d919061346e565b50838160030181905550828160040181905550600181600a015f6101000a81548160ff0219169083151502179055505f81600a0160016101000a81548160ff021916908360038111156116b3576116b2612877565b5b02179055505f81600a0160036101000a81548160ff0219169083151502179055505f81600a0160026101000a81548160ff0219169083151502179055506001547f52be7c4e77b4de76b7607d621492061fe13b58597e72dfb5e51ab8f6187ed14187604051611722919061353d565b60405180910390a2600154915050949350505050565b60025f9054906101000a900473ffffffffffffffffffffffffffffffffffffffff1681565b60025f9054906101000a900473ffffffffffffffffffffffffffffffffffffffff1673ffffffffffffffffffffffffffffffffffffffff163373ffffffffffffffffffffffffffffffffffffffff16146117ec576040517f08c379a00000000000000000000000000000000000000000000000000000000081526004016117e3906130f8565b60405180910390fd5b815f808281526020019081526020015f20600a015f9054906101000a900460ff1661184c576040517f08c379a000000000000000000000000000000000000000000000000000000000815260040161184390613160565b60405180910390fd5b5f805f8581526020019081526020015f209050806008015f8473ffffffffffffffffffffffffffffffffffffffff1673ffffffffffffffffffffffffffffffffffffffff1681526020019081526020015f205f9054906101000a900460ff16156118eb576040517f08c379a00000000000000000000000000000000000000000000000000000000081526004016118e29061391a565b60405180910390fd5b6001816008015f8573ffffffffffffffffffffffffffffffffffffffff1673ffffffffffffffffffffffffffffffffffffffff1681526020019081526020015f205f6101000a81548160ff0219169083151502179055508273ffffffffffffffffffffffffffffffffffffffff16847ff45b8429c36d478f9a6d081c4811a819b98aa5b608588bed9d406405cf28247360405160405180910390a350505050565b60015481565b5f6060805f8060605f808881526020019081526020015f20600a015f9054906101000a900460ff166119f9576040517f08c379a00000000000000000000000000000000000000000000000000000000081526004016119f090613160565b60405180910390fd5b5f805f8981526020019081526020015f209050805f015481600101826002018360030154846004015485600501848054611a32906132a1565b80601f0160208091040260200160405190810160405280929190818152602001828054611a5e906132a1565b8015611aa95780601f10611a8057610100808354040283529160200191611aa9565b820191905f5260205f20905b815481529060010190602001808311611a8c57829003601f168201915b50505050509450838054611abc906132a1565b80601f0160208091040260200160405190810160405280929190818152602001828054611ae8906132a1565b8015611b335780601f10611b0a57610100808354040283529160200191611b33565b820191905f5260205f20905b815481529060010190602001808311611b1657829003601f168201915b5050505050935080805480602002602001604051908101604052809291908181526020018280548015611b8357602002820191905f5260205f20905b815481526020019060010190808311611b6f575b505050505090509650965096509650965096505091939550919395565b60025f9054906101000a900473ffffffffffffffffffffffffffffffffffffffff1673ffffffffffffffffffffffffffffffffffffffff163373ffffffffffffffffffffffffffffffffffffffff1614611c2f576040517f08c379a0000000000000000000000000000000000000000000000000000000008152600401611c26906130f8565b60405180910390fd5b835f808281526020019081526020015f20600a015f9054906101000a900460ff16611c8f576040517f08c379a0000000000000000000000000000000000000000000000000000000008152600401611c8690613160565b60405180910390fd5b5f805f8781526020019081526020015f20905080600a0160029054906101000a900460ff1615611cf4576040517f08c379a0000000000000000000000000000000000000000000000000000000008152600401611ceb90613982565b60405180910390fd5b806009015f815480929190611d0890613862565b91905055505f816009015490506040518060c001604052808281526020018781526020018681526020015f815260200160011515815260200185815250826006015f8381526020019081526020015f205f820151815f01556020820151816001019081611d75919061346e565b506040820151816002019081611d8b919061346e565b50606082015181600301556080820151816004015f6101000a81548160ff02191690831515021790555060a0820151816005019081611dca919061346e565b509050508160050181908060018154018082558091505060019003905f5260205f20015f909190919091505580877f503cfceb0fb2178c5fb47ff394c816e4075abc8066c3dcb16d08a76847ee6e168888604051611e299291906139a0565b60405180910390a350505050505050565b60025f9054906101000a900473ffffffffffffffffffffffffffffffffffffffff1673ffffffffffffffffffffffffffffffffffffffff163373ffffffffffffffffffffffffffffffffffffffff1614611ec9576040517f08c379a0000000000000000000000000000000000000000000000000000000008152600401611ec0906130f8565b60405180910390fd5b815f808281526020019081526020015f20600a015f9054906101000a900460ff16611f29576040517f08c379a0000000000000000000000000000000000000000000000000000000008152600401611f2090613160565b60405180910390fd5b5f805f8581526020019081526020015f2090505f5b835181101561209457816008015f858381518110611f5f57611f5e6139d5565b5b602002602001015173ffffffffffffffffffffffffffffffffffffffff1673ffffffffffffffffffffffffffffffffffffffff1681526020019081526020015f205f9054906101000a900460ff16612081576001826008015f868481518110611fcb57611fca6139d5565b5b602002602001015173ffffffffffffffffffffffffffffffffffffffff1673ffffffffffffffffffffffffffffffffffffffff1681526020019081526020015f205f6101000a81548160ff021916908315150217905550838181518110612035576120346139d5565b5b602002602001015173ffffffffffffffffffffffffffffffffffffffff16857ff45b8429c36d478f9a6d081c4811a819b98aa5b608588bed9d406405cf28247360405160405180910390a35b808061208c90613862565b915050611f3e565b5050505050565b5f6060805f806060806060805f808b81526020019081526020015f20600a015f9054906101000a900460ff16612106576040517f08c379a00000000000000000000000000000000000000000000000000000000081526004016120fd90613160565b60405180910390fd5b5f805f8c81526020019081526020015f2090505f816005018054905090508067ffffffffffffffff81111561213e5761213d6125db565b5b60405190808252806020026020018201604052801561217157816020015b606081526020019060019003908161215c5790505b5094508067ffffffffffffffff81111561218e5761218d6125db565b5b6040519080825280602002602001820160405280156121c157816020015b60608152602001906001900390816121ac5790505b5093508067ffffffffffffffff8111156121de576121dd6125db565b5b60405190808252806020026020018201604052801561220c5781602001602082028036833780820191505090505b5092505f5b818110156123dc575f8360050182815481106122305761222f6139d5565b5b905f5260205f20015490505f846006015f8381526020019081526020015f209050806001018054612260906132a1565b80601f016020809104026020016040519081016040528092919081815260200182805461228c906132a1565b80156122d75780601f106122ae576101008083540402835291602001916122d7565b820191905f5260205f20905b8154815290600101906020018083116122ba57829003601f168201915b50505050508884815181106122ef576122ee6139d5565b5b6020026020010181905250806002018054612309906132a1565b80601f0160208091040260200160405190810160405280929190818152602001828054612335906132a1565b80156123805780601f1061235757610100808354040283529160200191612380565b820191905f5260205f20905b81548152906001019060200180831161236357829003601f168201915b5050505050878481518110612398576123976139d5565b5b602002602001018190525080600301548684815181106123bb576123ba6139d5565b5b602002602001018181525050505080806123d490613862565b915050612211565b50815f0154826001018360020184600301548560040154866005018a8a8a878054612406906132a1565b80601f0160208091040260200160405190810160405280929190818152602001828054612432906132a1565b801561247d5780601f106124545761010080835404028352916020019161247d565b820191905f5260205f20905b81548152906001019060200180831161246057829003601f168201915b50505050509750868054612490906132a1565b80601f01602080910402602001604051908101604052809291908181526020018280546124bc906132a1565b80156125075780601f106124de57610100808354040283529160200191612507565b820191905f5260205f20905b8154815290600101906020018083116124ea57829003601f168201915b505050505096508380548060200260200160405190810160405280929190818152602001828054801561255757602002820191905f5260205f20905b815481526020019060010190808311612543575b505050505093509a509a509a509a509a509a509a509a509a5050509193959799909294969850565b5f604051905090565b5f80fd5b5f80fd5b5f819050919050565b6125a281612590565b81146125ac575f80fd5b50565b5f813590506125bd81612599565b92915050565b5f80fd5b5f80fd5b5f601f19601f8301169050919050565b7f4e487b71000000000000000000000000000000000000000000000000000000005f52604160045260245ffd5b612611826125cb565b810181811067ffffffffffffffff821117156126305761262f6125db565b5b80604052505050565b5f61264261257f565b905061264e8282612608565b919050565b5f67ffffffffffffffff82111561266d5761266c6125db565b5b612676826125cb565b9050602081019050919050565b828183375f83830152505050565b5f6126a361269e84612653565b612639565b9050828152602081018484840111156126bf576126be6125c7565b5b6126ca848285612683565b509392505050565b5f82601f8301126126e6576126e56125c3565b5b81356126f6848260208601612691565b91505092915050565b5f806040838503121561271557612714612588565b5b5f612722858286016125af565b925050602083013567ffffffffffffffff8111156127435761274261258c565b5b61274f858286016126d2565b9150509250929050565b5f73ffffffffffffffffffffffffffffffffffffffff82169050919050565b5f61278282612759565b9050919050565b61279281612778565b811461279c575f80fd5b50565b5f813590506127ad81612789565b92915050565b5f80604083850312156127c9576127c8612588565b5b5f6127d6858286016125af565b92505060206127e78582860161279f565b9150509250929050565b5f8115159050919050565b612805816127f1565b82525050565b5f60208201905061281e5f8301846127fc565b92915050565b5f6020828403121561283957612838612588565b5b5f612846848285016125af565b91505092915050565b61285881612590565b82525050565b5f6020820190506128715f83018461284f565b92915050565b7f4e487b71000000000000000000000000000000000000000000000000000000005f52602160045260245ffd5b600481106128b5576128b4612877565b5b50565b5f8190506128c5826128a4565b919050565b5f6128d4826128b8565b9050919050565b6128e4816128ca565b82525050565b5f6060820190506128fd5f8301866128db565b61290a60208301856127fc565b61291760408301846127fc565b949350505050565b5f806040838503121561293557612934612588565b5b5f612942858286016125af565b9250506020612953858286016125af565b9150509250929050565b5f81519050919050565b5f82825260208201905092915050565b5f5b83811015612994578082015181840152602081019050612979565b5f8484015250505050565b5f6129a98261295d565b6129b38185612967565b93506129c3818560208601612977565b6129cc816125cb565b840191505092915050565b5f6040820190508181035f8301526129ef818561299f565b90506129fe60208301846127fc565b9392505050565b5f606082019050612a185f83018661284f565b8181036020830152612a2a818561299f565b9050612a39604083018461284f565b949350505050565b5f604082019050612a545f83018561284f565b612a61602083018461284f565b9392505050565b60048110612a74575f80fd5b50565b5f81359050612a8581612a68565b92915050565b5f8060408385031215612aa157612aa0612588565b5b5f612aae858286016125af565b9250506020612abf85828601612a77565b9150509250929050565b612ad2816127f1565b8114612adc575f80fd5b50565b5f81359050612aed81612ac9565b92915050565b5f8060408385031215612b0957612b08612588565b5b5f612b16858286016125af565b9250506020612b2785828601612adf565b9150509250929050565b5f805f8060808587031215612b4957612b48612588565b5b5f85013567ffffffffffffffff811115612b6657612b6561258c565b5b612b72878288016126d2565b945050602085013567ffffffffffffffff811115612b9357612b9261258c565b5b612b9f878288016126d2565b9350506040612bb0878288016125af565b9250506060612bc1878288016125af565b91505092959194509250565b612bd681612778565b82525050565b5f602082019050612bef5f830184612bcd565b92915050565b5f81519050919050565b5f82825260208201905092915050565b5f819050602082019050919050565b612c2781612590565b82525050565b5f612c388383612c1e565b60208301905092915050565b5f602082019050919050565b5f612c5a82612bf5565b612c648185612bff565b9350612c6f83612c0f565b805f5b83811015612c9f578151612c868882612c2d565b9750612c9183612c44565b925050600181019050612c72565b5085935050505092915050565b5f60c082019050612cbf5f83018961284f565b8181036020830152612cd1818861299f565b90508181036040830152612ce5818761299f565b9050612cf4606083018661284f565b612d01608083018561284f565b81810360a0830152612d138184612c50565b9050979650505050505050565b5f805f8060808587031215612d3857612d37612588565b5b5f612d45878288016125af565b945050602085013567ffffffffffffffff811115612d6657612d6561258c565b5b612d72878288016126d2565b935050604085013567ffffffffffffffff811115612d9357612d9261258c565b5b612d9f878288016126d2565b925050606085013567ffffffffffffffff811115612dc057612dbf61258c565b5b612dcc878288016126d2565b91505092959194509250565b5f67ffffffffffffffff821115612df257612df16125db565b5b602082029050602081019050919050565b5f80fd5b5f612e19612e1484612dd8565b612639565b90508083825260208201905060208402830185811115612e3c57612e3b612e03565b5b835b81811015612e655780612e51888261279f565b845260208401935050602081019050612e3e565b5050509392505050565b5f82601f830112612e8357612e826125c3565b5b8135612e93848260208601612e07565b91505092915050565b5f8060408385031215612eb257612eb1612588565b5b5f612ebf858286016125af565b925050602083013567ffffffffffffffff811115612ee057612edf61258c565b5b612eec85828601612e6f565b9150509250929050565b5f81519050919050565b5f82825260208201905092915050565b5f819050602082019050919050565b5f82825260208201905092915050565b5f612f398261295d565b612f438185612f1f565b9350612f53818560208601612977565b612f5c816125cb565b840191505092915050565b5f612f728383612f2f565b905092915050565b5f602082019050919050565b5f612f9082612ef6565b612f9a8185612f00565b935083602082028501612fac85612f10565b805f5b85811015612fe75784840389528151612fc88582612f67565b9450612fd383612f7a565b925060208a01995050600181019050612faf565b50829750879550505050505092915050565b5f6101208201905061300d5f83018c61284f565b818103602083015261301f818b61299f565b90508181036040830152613033818a61299f565b9050613042606083018961284f565b61304f608083018861284f565b81810360a08301526130618187612c50565b905081810360c08301526130758186612f86565b905081810360e08301526130898185612f86565b905081810361010083015261309e8184612c50565b90509a9950505050505050505050565b7f4e6f7420617574686f72697a65640000000000000000000000000000000000005f82015250565b5f6130e2600e83612967565b91506130ed826130ae565b602082019050919050565b5f6020820190508181035f83015261310f816130d6565b9050919050565b7f456c656374696f6e206e6f7420666f756e6400000000000000000000000000005f82015250565b5f61314a601283612967565b915061315582613116565b602082019050919050565b5f6020820190508181035f8301526131778161313e565b9050919050565b7f456c656374696f6e206d75737420626520636c6f73656420746f2066696e616c5f8201527f697a650000000000000000000000000000000000000000000000000000000000602082015250565b5f6131d8602383612967565b91506131e38261317e565b604082019050919050565b5f6020820190508181035f830152613205816131cc565b9050919050565b7f456c656374696f6e20686173206e6f7420656e646564207965740000000000005f82015250565b5f613240601a83612967565b915061324b8261320c565b602082019050919050565b5f6020820190508181035f83015261326d81613234565b9050919050565b7f4e487b71000000000000000000000000000000000000000000000000000000005f52602260045260245ffd5b5f60028204905060018216806132b857607f821691505b6020821081036132cb576132ca613274565b5b50919050565b5f819050815f5260205f209050919050565b5f6020601f8301049050919050565b5f82821b905092915050565b5f6008830261332d7fffffffffffffffffffffffffffffffffffffffffffffffffffffffffffffffff826132f2565b61333786836132f2565b95508019841693508086168417925050509392505050565b5f819050919050565b5f61337261336d61336884612590565b61334f565b612590565b9050919050565b5f819050919050565b61338b83613358565b61339f61339782613379565b8484546132fe565b825550505050565b5f90565b6133b36133a7565b6133be818484613382565b505050565b5b818110156133e1576133d65f826133ab565b6001810190506133c4565b5050565b601f821115613426576133f7816132d1565b613400846132e3565b8101602085101561340f578190505b61342361341b856132e3565b8301826133c3565b50505b505050565b5f82821c905092915050565b5f6134465f198460080261342b565b1980831691505092915050565b5f61345e8383613437565b9150826002028217905092915050565b6134778261295d565b67ffffffffffffffff8111156134905761348f6125db565b5b61349a82546132a1565b6134a58282856133e5565b5f60209050601f8311600181146134d6575f84156134c4578287015190505b6134ce8582613453565b865550613535565b601f1984166134e4866132d1565b5f5b8281101561350b578489015182556001820191506020850194506020810190506134e6565b868310156135285784890151613524601f891682613437565b8355505b6001600288020188555050505b505050505050565b5f6020820190508181035f830152613555818461299f565b905092915050565b7f566f746572206e6f7420726567697374657265640000000000000000000000005f82015250565b5f613591601483612967565b915061359c8261355d565b602082019050919050565b5f6020820190508181035f8301526135be81613585565b9050919050565b7f566f74696e67206973206e6f7420656e61626c656400000000000000000000005f82015250565b5f6135f9601583612967565b9150613604826135c5565b602082019050919050565b5f6020820190508181035f830152613626816135ed565b9050919050565b7f416c726561647920766f74656420696e207468697320656c656374696f6e00005f82015250565b5f613661601e83612967565b915061366c8261362d565b602082019050919050565b5f6020820190508181035f83015261368e81613655565b9050919050565b7f496e76616c69642063616e6469646174650000000000000000000000000000005f82015250565b5f6136c9601183612967565b91506136d482613695565b602082019050919050565b5f6020820190508181035f8301526136f6816136bd565b9050919050565b7f43616e646964617465206973206e6f74206163746976650000000000000000005f82015250565b5f613731601783612967565b915061373c826136fd565b602082019050919050565b5f6020820190508181035f83015261375e81613725565b9050919050565b7f456c656374696f6e20686173206e6f74207374617274656400000000000000005f82015250565b5f613799601883612967565b91506137a482613765565b602082019050919050565b5f6020820190508181035f8301526137c68161378d565b9050919050565b7f456c656374696f6e2068617320656e64656400000000000000000000000000005f82015250565b5f613801601283612967565b915061380c826137cd565b602082019050919050565b5f6020820190508181035f83015261382e816137f5565b9050919050565b7f4e487b71000000000000000000000000000000000000000000000000000000005f52601160045260245ffd5b5f61386c82612590565b91507fffffffffffffffffffffffffffffffffffffffffffffffffffffffffffffffff820361389e5761389d613835565b5b600182019050919050565b5f6040820190506138bc5f8301856128db565b6138c960208301846128db565b9392505050565b7f566f74657220616c7265616479207265676973746572656400000000000000005f82015250565b5f613904601883612967565b915061390f826138d0565b602082019050919050565b5f6020820190508181035f830152613931816138f8565b9050919050565b7f43616e646964617465206c697374206973206c6f636b656400000000000000005f82015250565b5f61396c601883612967565b915061397782613938565b602082019050919050565b5f6020820190508181035f83015261399981613960565b9050919050565b5f6040820190508181035f8301526139b8818561299f565b905081810360208301526139cc818461299f565b90509392505050565b7f4e487b71000000000000000000000000000000000000000000000000000000005f52603260045260245ffdfea2646970667358221220641cb5eea49b1e1c398cb9eae3b802adf3d880b85f8597c519c05165ba24953a64736f6c63430008150033",
  "immutableReferences": {},
  "source": "// SPDX-License-Identifier: MIT\npragma solidity ^0.8.0;\n\ncontract Voting {\n    enum ElectionStatus { Setup, Open, Closed, Finalized }\n    \n    struct Candidate {\n        uint id;\n        string name;\n        string seat;\n        uint voteCount;\n        bool isActive;\n        string nameHash; // Hash of candidate name for verification\n    }\n\n    struct Election {\n        uint id;\n        string title;\n        string description;\n        uint startsAt;\n        uint endsAt;\n        uint[] candidateIds;\n        mapping(uint => Candidate) candidates;\n        mapping(address => bool) hasVoted; // per-election voter record\n        mapping(address => bool) registeredVoters; // registered voters for this election\n        uint candidatesCount;\n        bool exists;\n        ElectionStatus status;\n        bool candidateListLocked;\n        bool votingEnabled;\n        uint totalVotes;\n        string finalResultsHash; // Hash of final results for verification\n    }\n\n    mapping(uint => Election) private elections;\n    uint public electionsCount;\n    address public owner;\n    uint public version = 2; // contract version\n\n    event ElectionCreated(uint indexed electionId, string title);\n    event CandidateAdded(uint indexed electionId, uint indexed candidateId, string name, string seat);\n    event VoteCast(uint indexed electionId, uint indexed candidateId, address indexed voter);\n    event VoterRegistered(uint indexed electionId, address indexed voter);\n    event ElectionStatusChanged(uint indexed electionId, ElectionStatus oldStatus, ElectionStatus newStatus);\n    event CandidateListLocked(uint indexed electionId);\n    event VotingToggled(uint indexed electionId, bool enabled);\n    event TallyFinalized(uint indexed electionId, string resultsHash);\n\n    modifier onlyOwner() {\n        require(msg.sender == owner, \"Not authorized\");\n        _;\n    }\n\n    modifier electionExists(uint _electionId) {\n        require(elections[_electionId].exists, \"Election not found\");\n        _;\n    }\n\n    modifier onlyRegisteredVoter(uint _electionId) {\n        require(elections[_electionId].registeredVoters[msg.sender], \"Voter not registered\");\n        _;\n    }\n\n    constructor() {\n        owner = msg.sender;\n    }\n\n    // F.1.1: Create & Configure Election\n    function createElection(string memory _title, string memory _description, uint _startsAt, uint _endsAt) public onlyOwner returns (uint) {\n        electionsCount++;\n        Election storage e = elections[electionsCount];\n        e.id = electionsCount;\n        e.title = _title;\n        e.description = _description;\n        e.startsAt = _startsAt;\n        e.endsAt = _endsAt;\n        e.exists = true;\n        e.status = ElectionStatus.Setup;\n        e.votingEnabled = false;\n        e.candidateListLocked = false;\n        emit ElectionCreated(electionsCount, _title);\n        return electionsCount;\n    }\n\n    // F.1.2: Election Lifecycle Control\n    function changeElectionStatus(uint _electionId, ElectionStatus _newStatus) public onlyOwner electionExists(_electionId) {\n        Election storage e = elections[_electionId];\n        ElectionStatus oldStatus = e.status;\n        e.status = _newStatus;\n        \n        // Auto-enable/disable voting based on status\n        if (_newStatus == ElectionStatus.Open) {\n            e.votingEnabled = true;\n        } else if (_newStatus == ElectionStatus.Closed || _newStatus == ElectionStatus.Finalized) {\n            e.votingEnabled = false;\n        }\n        \n        emit ElectionStatusChanged(_electionId, oldStatus, _newStatus);\n    }\n\n    // F.1.2: Toggle Voting (alternative to status change)\n    function toggleVoting(uint _electionId, bool _enabled) public onlyOwner electionExists(_electionId) {\n        Election storage e = elections[_electionId];\n        e.votingEnabled = _enabled;\n        emit VotingToggled(_electionId, _enabled);\n    }\n\n    // F.2.1: Register Voter\n    function registerVoter(uint _electionId, address _voter) public onlyOwner electionExists(_electionId) {\n        Election storage e = elections[_electionId];\n        require(!e.registeredVoters[_voter], \"Voter already registered\");\n        e.registeredVoters[_voter] = true;\n        emit VoterRegistered(_electionId, _voter);\n    }\n\n    // F.2.1: Bulk Register Voters\n    function registerVoters(uint _electionId, address[] memory _voters) public onlyOwner electionExists(_electionId) {\n        Election storage e = elections[_electionId];\n        for (uint i = 0; i < _voters.length; i++) {\n            if (!e.registeredVoters[_voters[i]]) {\n                e.registeredVoters[_voters[i]] = true;\n                emit VoterRegistered(_electionId, _voters[i]);\n            }\n        }\n    }\n\n    // F.3.1: Add Candidate with Hash\n    function addCandidate(uint _electionId, string memory _name, string memory _seat, string memory _nameHash) public onlyOwner electionExists(_electionId) {\n        Election storage e = elections[_electionId];\n        require(!e.candidateListLocked, \"Candidate list is locked\");\n        e.candidatesCount++;\n        uint cid = e.candidatesCount;\n        e.candidates[cid] = Candidate(cid, _name, _seat, 0, true, _nameHash);\n        e.candidateIds.push(cid);\n        emit CandidateAdded(_electionId, cid, _name, _seat);\n    }\n\n    // F.3.2: Lock Candidate List\n    function lockCandidateList(uint _electionId) public onlyOwner electionExists(_electionId) {\n        Election storage e = elections[_electionId];\n        e.candidateListLocked = true;\n        emit CandidateListLocked(_electionId);\n    }\n\n    // F.4.1: Cast Vote (Enhanced)\n    function castVote(uint _electionId, uint _candidateId) public electionExists(_electionId) onlyRegisteredVoter(_electionId) {\n        Election storage e = elections[_electionId];\n        require(e.votingEnabled, \"Voting is not enabled\");\n        require(!e.hasVoted[msg.sender], \"Already voted in this election\");\n        require(_candidateId > 0 && _candidateId <= e.candidatesCount, \"Invalid candidate\");\n        require(e.candidates[_candidateId].isActive, \"Candidate is not active\");\n        require(block.timestamp >= e.startsAt, \"Election has not started\");\n        require(block.timestamp <= e.endsAt, \"Election has ended\");\n        \n        e.hasVoted[msg.sender] = true;\n        e.candidates[_candidateId].voteCount++;\n        e.totalVotes++;\n        emit VoteCast(_electionId, _candidateId, msg.sender);\n    }\n\n    // F.5.1: Finalize Tally\n    function finalizeTally(uint _electionId, string memory _resultsHash) public onlyOwner electionExists(_electionId) {\n        Election storage e = elections[_electionId];\n        require(e.status == ElectionStatus.Closed, \"Election must be closed to finalize\");\n        require(block.timestamp > e.endsAt, \"Election has not ended yet\");\n        \n        e.status = ElectionStatus.Finalized;\n        e.finalResultsHash = _resultsHash;\n        emit TallyFinalized(_electionId, _resultsHash);\n    }\n\n    // Enhanced getters\n    function getElection(uint _electionId) public view returns (uint id, string memory title, string memory description, uint startsAt, uint endsAt, uint[] memory candidateIds) {\n        require(elections[_electionId].exists, \"Election not found\");\n        Election storage e = elections[_electionId];\n        return (e.id, e.title, e.description, e.startsAt, e.endsAt, e.candidateIds);\n    }\n\n    // Return detailed election including candidate names, seats and vote counts\n    function getElectionDetails(uint _electionId) public view returns (\n        uint id,\n        string memory title,\n        string memory description,\n        uint startsAt,\n        uint endsAt,\n        uint[] memory candidateIds,\n        string[] memory names,\n        string[] memory seats,\n        uint[] memory voteCounts\n    ) {\n        require(elections[_electionId].exists, \"Election not found\");\n        Election storage e = elections[_electionId];\n        uint len = e.candidateIds.length;\n        names = new string[](len);\n        seats = new string[](len);\n        voteCounts = new uint[](len);\n        for (uint i = 0; i < len; i++) {\n            uint cid = e.candidateIds[i];\n            Candidate storage c = e.candidates[cid];\n            names[i] = c.name;\n            seats[i] = c.seat;\n            voteCounts[i] = c.voteCount;\n        }\n        return (e.id, e.title, e.description, e.startsAt, e.endsAt, e.candidateIds, names, seats, voteCounts);\n    }\n\n    function getCandidate(uint _electionId, uint _candidateId) public view returns (uint id, string memory name, uint voteCount) {\n        require(elections[_electionId].exists, \"Election not found\");\n        Election storage e = elections[_electionId];\n        Candidate storage c = e.candidates[_candidateId];\n        return (c.id, c.name, c.voteCount);\n    }\n\n    function hasVotedIn(uint _electionId, address _voter) public view returns (bool) {\n        require(elections[_electionId].exists, \"Election not found\");\n        return elections[_electionId].hasVoted[_voter];\n    }\n\n    // F.2.3: Check if voter is registered\n    function isVoterRegistered(uint _electionId, address _voter) public view returns (bool) {\n        require(elections[_electionId].exists, \"Election not found\");\n        return elections[_electionId].registeredVoters[_voter];\n    }\n\n    // F.5.2: Get turnout statistics\n    function getTurnoutStats(uint _electionId) public view returns (uint totalVotes, uint registeredVoters) {\n        require(elections[_electionId].exists, \"Election not found\");\n        Election storage e = elections[_electionId];\n        return (e.totalVotes, e.candidateIds.length); // Note: This is a simplified version\n    }\n\n    // F.5.3: Get final results\n    function getFinalResults(uint _electionId) public view returns (string memory resultsHash, bool isFinalized) {\n        require(elections[_electionId].exists, \"Election not found\");\n        Election storage e = elections[_electionId];\n        return (e.finalResultsHash, e.status == ElectionStatus.Finalized);\n    }\n\n    // Get election status\n    function getElectionStatus(uint _electionId) public view returns (ElectionStatus status, bool votingEnabled, bool candidateListLocked) {\n        require(elections[_electionId].exists, \"Election not found\");\n        Election storage e = elections[_electionId];\n        return (e.status, e.votingEnabled, e.candidateListLocked);\n    }\n\n    // Get total registered voters count (approximate)\n    function getRegisteredVotersCount(uint _electionId) public view returns (uint) {\n        require(elections[_electionId].exists, \"Election not found\");\n        // Note: This is a simplified implementation. In a real scenario, you'd need to track this separately\n        return elections[_electionId].candidateIds.length;\n    }\n}\n",
  "sourcePath": "/home/timothy/Desktop/BlockChainVotingSystem/blockchain/contracts/Voting.sol",
  "compiler": {
    "name": "solc",
    "version": "0.8.21+commit.d9974bed.Emscripten.clang"
  },
  "schemaVersion": "3.4.16",
  "updatedAt": "2025-10-16T14:41:00.341Z",
  "networkType": "ethereum",
  "devdoc": {
    "kind": "dev",
    "methods": {},
    "version": 1
  },
  "userdoc": {
    "kind": "user",
    "methods": {},
    "version": 1
  }
}