{
  "contractName": "Voting",
  "abi": [
    {
      "inputs": [],
      "stateMutability": "nonpayable",
      "type": "constructor"
    },
    {
      "anonymous": false,
      "inputs": [
        {
          "indexed": true,
          "internalType": "uint256",
          "name": "electionId",
          "type": "uint256"
        },
        {
          "indexed": true,
          "internalType": "uint256",
          "name": "candidateId",
          "type": "uint256"
        },
        {
          "indexed": false,
          "internalType": "string",
          "name": "name",
          "type": "string"
        },
        {
          "indexed": false,
          "internalType": "string",
          "name": "seat",
          "type": "string"
        }
      ],
      "name": "CandidateAdded",
      "type": "event"
    },
    {
      "anonymous": false,
      "inputs": [
        {
          "indexed": true,
          "internalType": "uint256",
          "name": "electionId",
          "type": "uint256"
        },
        {
          "indexed": false,
          "internalType": "string",
          "name": "title",
          "type": "string"
        }
      ],
      "name": "ElectionCreated",
      "type": "event"
    },
    {
      "anonymous": false,
      "inputs": [
        {
          "indexed": true,
          "internalType": "uint256",
          "name": "electionId",
          "type": "uint256"
        },
        {
          "indexed": true,
          "internalType": "uint256",
          "name": "candidateId",
          "type": "uint256"
        },
        {
          "indexed": true,
          "internalType": "address",
          "name": "voter",
          "type": "address"
        }
      ],
      "name": "VoteCast",
      "type": "event"
    },
    {
      "inputs": [],
      "name": "electionsCount",
      "outputs": [
        {
          "internalType": "uint256",
          "name": "",
          "type": "uint256"
        }
      ],
      "stateMutability": "view",
      "type": "function"
    },
    {
      "inputs": [],
      "name": "owner",
      "outputs": [
        {
          "internalType": "address",
          "name": "",
          "type": "address"
        }
      ],
      "stateMutability": "view",
      "type": "function"
    },
    {
      "inputs": [],
      "name": "version",
      "outputs": [
        {
          "internalType": "uint256",
          "name": "",
          "type": "uint256"
        }
      ],
      "stateMutability": "view",
      "type": "function"
    },
    {
      "inputs": [
        {
          "internalType": "string",
          "name": "_title",
          "type": "string"
        },
        {
          "internalType": "string",
          "name": "_description",
          "type": "string"
        },
        {
          "internalType": "uint256",
          "name": "_startsAt",
          "type": "uint256"
        },
        {
          "internalType": "uint256",
          "name": "_endsAt",
          "type": "uint256"
        }
      ],
      "name": "createElection",
      "outputs": [
        {
          "internalType": "uint256",
          "name": "",
          "type": "uint256"
        }
      ],
      "stateMutability": "nonpayable",
      "type": "function"
    },
    {
      "inputs": [
        {
          "internalType": "uint256",
          "name": "_electionId",
          "type": "uint256"
        },
        {
          "internalType": "string",
          "name": "_name",
          "type": "string"
        },
        {
          "internalType": "string",
          "name": "_seat",
          "type": "string"
        }
      ],
      "name": "addCandidate",
      "outputs": [
        {
          "internalType": "uint256",
          "name": "",
          "type": "uint256"
        }
      ],
      "stateMutability": "nonpayable",
      "type": "function"
    },
    {
      "inputs": [
        {
          "internalType": "uint256",
          "name": "_electionId",
          "type": "uint256"
        },
        {
          "internalType": "uint256",
          "name": "_candidateId",
          "type": "uint256"
        }
      ],
      "name": "vote",
      "outputs": [],
      "stateMutability": "nonpayable",
      "type": "function"
    },
    {
      "inputs": [
        {
          "internalType": "uint256",
          "name": "_electionId",
          "type": "uint256"
        }
      ],
      "name": "getElection",
      "outputs": [
        {
          "internalType": "uint256",
          "name": "id",
          "type": "uint256"
        },
        {
          "internalType": "string",
          "name": "title",
          "type": "string"
        },
        {
          "internalType": "string",
          "name": "description",
          "type": "string"
        },
        {
          "internalType": "uint256",
          "name": "startsAt",
          "type": "uint256"
        },
        {
          "internalType": "uint256",
          "name": "endsAt",
          "type": "uint256"
        },
        {
          "internalType": "uint256[]",
          "name": "candidateIds",
          "type": "uint256[]"
        }
      ],
      "stateMutability": "view",
      "type": "function"
    },
    {
      "inputs": [
        {
          "internalType": "uint256",
          "name": "_electionId",
          "type": "uint256"
        }
      ],
      "name": "getElectionDetails",
      "outputs": [
        {
          "internalType": "uint256",
          "name": "id",
          "type": "uint256"
        },
        {
          "internalType": "string",
          "name": "title",
          "type": "string"
        },
        {
          "internalType": "string",
          "name": "description",
          "type": "string"
        },
        {
          "internalType": "uint256",
          "name": "startsAt",
          "type": "uint256"
        },
        {
          "internalType": "uint256",
          "name": "endsAt",
          "type": "uint256"
        },
        {
          "internalType": "uint256[]",
          "name": "candidateIds",
          "type": "uint256[]"
        },
        {
          "internalType": "string[]",
          "name": "names",
          "type": "string[]"
        },
        {
          "internalType": "string[]",
          "name": "seats",
          "type": "string[]"
        },
        {
          "internalType": "uint256[]",
          "name": "voteCounts",
          "type": "uint256[]"
        }
      ],
      "stateMutability": "view",
      "type": "function"
    },
    {
      "inputs": [
        {
          "internalType": "uint256",
          "name": "_electionId",
          "type": "uint256"
        },
        {
          "internalType": "uint256",
          "name": "_candidateId",
          "type": "uint256"
        }
      ],
      "name": "getCandidate",
      "outputs": [
        {
          "internalType": "uint256",
          "name": "id",
          "type": "uint256"
        },
        {
          "internalType": "string",
          "name": "name",
          "type": "string"
        },
        {
          "internalType": "uint256",
          "name": "voteCount",
          "type": "uint256"
        }
      ],
      "stateMutability": "view",
      "type": "function"
    },
    {
      "inputs": [
        {
          "internalType": "uint256",
          "name": "_electionId",
          "type": "uint256"
        },
        {
          "internalType": "address",
          "name": "_voter",
          "type": "address"
        }
      ],
      "name": "hasVotedIn",
      "outputs": [
        {
          "internalType": "bool",
          "name": "",
          "type": "bool"
        }
      ],
      "stateMutability": "view",
      "type": "function"
    }
  ],
  "bytecode": "0x60806040526001600355348015610014575f80fd5b503360025f6101000a81548173ffffffffffffffffffffffffffffffffffffffff021916908373ffffffffffffffffffffffffffffffffffffffff160217905550611e36806100625f395ff3fe608060405234801561000f575f80fd5b506004361061009c575f3560e01c80639a74c695116100645780639a74c6951461016e5780639d7107771461018c578063b384abef146101c1578063e6c62efc146101dd578063f60499241461020d5761009c565b80630973389c146100a05780634bd46448146100d057806354fd4d50146101025780637ad36e84146101205780638da5cb5b14610150575b5f80fd5b6100ba60048036038101906100b5919061117e565b610245565b6040516100c791906111d6565b60405180910390f35b6100ea60048036038101906100e591906111ef565b610308565b6040516100f9939291906112c6565b60405180910390f35b61010a61043a565b6040516101179190611302565b60405180910390f35b61013a60048036038101906101359190611447565b610440565b6040516101479190611302565b60405180910390f35b6101586105a0565b60405161016591906114f2565b60405180910390f35b6101766105c5565b6040516101839190611302565b60405180910390f35b6101a660048036038101906101a1919061150b565b6105cb565b6040516101b8969594939291906115ed565b60405180910390f35b6101db60048036038101906101d691906111ef565b6107d9565b005b6101f760048036038101906101f29190611661565b6109f5565b6040516102049190611302565b60405180910390f35b6102276004803603810190610222919061150b565b610bfc565b60405161023c999897969594939291906117ec565b60405180910390f35b5f805f8481526020019081526020015f206009015f9054906101000a900460ff166102a5576040517f08c379a000000000000000000000000000000000000000000000000000000000815260040161029c906118eb565b60405180910390fd5b5f808481526020019081526020015f206007015f8373ffffffffffffffffffffffffffffffffffffffff1673ffffffffffffffffffffffffffffffffffffffff1681526020019081526020015f205f9054906101000a900460ff16905092915050565b5f60605f805f8681526020019081526020015f206009015f9054906101000a900460ff1661036b576040517f08c379a0000000000000000000000000000000000000000000000000000000008152600401610362906118eb565b60405180910390fd5b5f805f8781526020019081526020015f2090505f816006015f8781526020019081526020015f209050805f01548160010182600301548180546103ad90611936565b80601f01602080910402602001604051908101604052809291908181526020018280546103d990611936565b80156104245780601f106103fb57610100808354040283529160200191610424565b820191905f5260205f20905b81548152906001019060200180831161040757829003601f168201915b5050505050915094509450945050509250925092565b60035481565b5f60025f9054906101000a900473ffffffffffffffffffffffffffffffffffffffff1673ffffffffffffffffffffffffffffffffffffffff163373ffffffffffffffffffffffffffffffffffffffff16146104d0576040517f08c379a00000000000000000000000000000000000000000000000000000000081526004016104c7906119b0565b60405180910390fd5b60015f8154809291906104e2906119fb565b91905055505f805f60015481526020019081526020015f209050600154815f0181905550858160010190816105179190611bdf565b50848160020190816105299190611bdf565b508381600301819055508281600401819055506001816009015f6101000a81548160ff0219169083151502179055506001547f52be7c4e77b4de76b7607d621492061fe13b58597e72dfb5e51ab8f6187ed1418760405161058a9190611cae565b60405180910390a2600154915050949350505050565b60025f9054906101000a900473ffffffffffffffffffffffffffffffffffffffff1681565b60015481565b5f6060805f8060605f808881526020019081526020015f206009015f9054906101000a900460ff16610632576040517f08c379a0000000000000000000000000000000000000000000000000000000008152600401610629906118eb565b60405180910390fd5b5f805f8981526020019081526020015f209050805f01548160010182600201836003015484600401548560050184805461066b90611936565b80601f016020809104026020016040519081016040528092919081815260200182805461069790611936565b80156106e25780601f106106b9576101008083540402835291602001916106e2565b820191905f5260205f20905b8154815290600101906020018083116106c557829003601f168201915b505050505094508380546106f590611936565b80601f016020809104026020016040519081016040528092919081815260200182805461072190611936565b801561076c5780601f106107435761010080835404028352916020019161076c565b820191905f5260205f20905b81548152906001019060200180831161074f57829003601f168201915b50505050509350808054806020026020016040519081016040528092919081815260200182805480156107bc57602002820191905f5260205f20905b8154815260200190600101908083116107a8575b505050505090509650965096509650965096505091939550919395565b5f808381526020019081526020015f206009015f9054906101000a900460ff16610838576040517f08c379a000000000000000000000000000000000000000000000000000000000815260040161082f906118eb565b60405180910390fd5b5f805f8481526020019081526020015f209050806007015f3373ffffffffffffffffffffffffffffffffffffffff1673ffffffffffffffffffffffffffffffffffffffff1681526020019081526020015f205f9054906101000a900460ff16156108d7576040517f08c379a00000000000000000000000000000000000000000000000000000000081526004016108ce90611d18565b60405180910390fd5b5f821180156108ea575080600801548211155b610929576040517f08c379a000000000000000000000000000000000000000000000000000000000815260040161092090611d80565b60405180910390fd5b6001816007015f3373ffffffffffffffffffffffffffffffffffffffff1673ffffffffffffffffffffffffffffffffffffffff1681526020019081526020015f205f6101000a81548160ff021916908315150217905550806006015f8381526020019081526020015f206003015f8154809291906109a6906119fb565b91905055503373ffffffffffffffffffffffffffffffffffffffff1682847f7fe1d4e6b34e228b5dc059fcdc037c71b216fb2417f47c171e505144a5e4f5fc60405160405180910390a4505050565b5f60025f9054906101000a900473ffffffffffffffffffffffffffffffffffffffff1673ffffffffffffffffffffffffffffffffffffffff163373ffffffffffffffffffffffffffffffffffffffff1614610a85576040517f08c379a0000000000000000000000000000000000000000000000000000000008152600401610a7c906119b0565b60405180910390fd5b5f808581526020019081526020015f206009015f9054906101000a900460ff16610ae4576040517f08c379a0000000000000000000000000000000000000000000000000000000008152600401610adb906118eb565b60405180910390fd5b5f805f8681526020019081526020015f209050806008015f815480929190610b0b906119fb565b91905055505f8160080154905060405180608001604052808281526020018681526020018581526020015f815250826006015f8381526020019081526020015f205f820151815f01556020820151816001019081610b699190611bdf565b506040820151816002019081610b7f9190611bdf565b50606082015181600301559050508160050181908060018154018082558091505060019003905f5260205f20015f909190919091505580867f503cfceb0fb2178c5fb47ff394c816e4075abc8066c3dcb16d08a76847ee6e168787604051610be8929190611d9e565b60405180910390a380925050509392505050565b5f6060805f806060806060805f808b81526020019081526020015f206009015f9054906101000a900460ff16610c67576040517f08c379a0000000000000000000000000000000000000000000000000000000008152600401610c5e906118eb565b60405180910390fd5b5f805f8c81526020019081526020015f2090505f816005018054905090508067ffffffffffffffff811115610c9f57610c9e611323565b5b604051908082528060200260200182016040528015610cd257816020015b6060815260200190600190039081610cbd5790505b5094508067ffffffffffffffff811115610cef57610cee611323565b5b604051908082528060200260200182016040528015610d2257816020015b6060815260200190600190039081610d0d5790505b5093508067ffffffffffffffff811115610d3f57610d3e611323565b5b604051908082528060200260200182016040528015610d6d5781602001602082028036833780820191505090505b5092505f5b81811015610f3d575f836005018281548110610d9157610d90611dd3565b5b905f5260205f20015490505f846006015f8381526020019081526020015f209050806001018054610dc190611936565b80601f0160208091040260200160405190810160405280929190818152602001828054610ded90611936565b8015610e385780601f10610e0f57610100808354040283529160200191610e38565b820191905f5260205f20905b815481529060010190602001808311610e1b57829003601f168201915b5050505050888481518110610e5057610e4f611dd3565b5b6020026020010181905250806002018054610e6a90611936565b80601f0160208091040260200160405190810160405280929190818152602001828054610e9690611936565b8015610ee15780601f10610eb857610100808354040283529160200191610ee1565b820191905f5260205f20905b815481529060010190602001808311610ec457829003601f168201915b5050505050878481518110610ef957610ef8611dd3565b5b60200260200101819052508060030154868481518110610f1c57610f1b611dd3565b5b60200260200101818152505050508080610f35906119fb565b915050610d72565b50815f0154826001018360020184600301548560040154866005018a8a8a878054610f6790611936565b80601f0160208091040260200160405190810160405280929190818152602001828054610f9390611936565b8015610fde5780601f10610fb557610100808354040283529160200191610fde565b820191905f5260205f20905b815481529060010190602001808311610fc157829003601f168201915b50505050509750868054610ff190611936565b80601f016020809104026020016040519081016040528092919081815260200182805461101d90611936565b80156110685780601f1061103f57610100808354040283529160200191611068565b820191905f5260205f20905b81548152906001019060200180831161104b57829003601f168201915b50505050509650838054806020026020016040519081016040528092919081815260200182805480156110b857602002820191905f5260205f20905b8154815260200190600101908083116110a4575b505050505093509a509a509a509a509a509a509a509a509a5050509193959799909294969850565b5f604051905090565b5f80fd5b5f80fd5b5f819050919050565b611103816110f1565b811461110d575f80fd5b50565b5f8135905061111e816110fa565b92915050565b5f73ffffffffffffffffffffffffffffffffffffffff82169050919050565b5f61114d82611124565b9050919050565b61115d81611143565b8114611167575f80fd5b50565b5f8135905061117881611154565b92915050565b5f8060408385031215611194576111936110e9565b5b5f6111a185828601611110565b92505060206111b28582860161116a565b9150509250929050565b5f8115159050919050565b6111d0816111bc565b82525050565b5f6020820190506111e95f8301846111c7565b92915050565b5f8060408385031215611205576112046110e9565b5b5f61121285828601611110565b925050602061122385828601611110565b9150509250929050565b611236816110f1565b82525050565b5f81519050919050565b5f82825260208201905092915050565b5f5b83811015611273578082015181840152602081019050611258565b5f8484015250505050565b5f601f19601f8301169050919050565b5f6112988261123c565b6112a28185611246565b93506112b2818560208601611256565b6112bb8161127e565b840191505092915050565b5f6060820190506112d95f83018661122d565b81810360208301526112eb818561128e565b90506112fa604083018461122d565b949350505050565b5f6020820190506113155f83018461122d565b92915050565b5f80fd5b5f80fd5b7f4e487b71000000000000000000000000000000000000000000000000000000005f52604160045260245ffd5b6113598261127e565b810181811067ffffffffffffffff8211171561137857611377611323565b5b80604052505050565b5f61138a6110e0565b90506113968282611350565b919050565b5f67ffffffffffffffff8211156113b5576113b4611323565b5b6113be8261127e565b9050602081019050919050565b828183375f83830152505050565b5f6113eb6113e68461139b565b611381565b9050828152602081018484840111156114075761140661131f565b5b6114128482856113cb565b509392505050565b5f82601f83011261142e5761142d61131b565b5b813561143e8482602086016113d9565b91505092915050565b5f805f806080858703121561145f5761145e6110e9565b5b5f85013567ffffffffffffffff81111561147c5761147b6110ed565b5b6114888782880161141a565b945050602085013567ffffffffffffffff8111156114a9576114a86110ed565b5b6114b58782880161141a565b93505060406114c687828801611110565b92505060606114d787828801611110565b91505092959194509250565b6114ec81611143565b82525050565b5f6020820190506115055f8301846114e3565b92915050565b5f602082840312156115205761151f6110e9565b5b5f61152d84828501611110565b91505092915050565b5f81519050919050565b5f82825260208201905092915050565b5f819050602082019050919050565b611568816110f1565b82525050565b5f611579838361155f565b60208301905092915050565b5f602082019050919050565b5f61159b82611536565b6115a58185611540565b93506115b083611550565b805f5b838110156115e05781516115c7888261156e565b97506115d283611585565b9250506001810190506115b3565b5085935050505092915050565b5f60c0820190506116005f83018961122d565b8181036020830152611612818861128e565b90508181036040830152611626818761128e565b9050611635606083018661122d565b611642608083018561122d565b81810360a08301526116548184611591565b9050979650505050505050565b5f805f60608486031215611678576116776110e9565b5b5f61168586828701611110565b935050602084013567ffffffffffffffff8111156116a6576116a56110ed565b5b6116b28682870161141a565b925050604084013567ffffffffffffffff8111156116d3576116d26110ed565b5b6116df8682870161141a565b9150509250925092565b5f81519050919050565b5f82825260208201905092915050565b5f819050602082019050919050565b5f82825260208201905092915050565b5f61172c8261123c565b6117368185611712565b9350611746818560208601611256565b61174f8161127e565b840191505092915050565b5f6117658383611722565b905092915050565b5f602082019050919050565b5f611783826116e9565b61178d81856116f3565b93508360208202850161179f85611703565b805f5b858110156117da57848403895281516117bb858261175a565b94506117c68361176d565b925060208a019950506001810190506117a2565b50829750879550505050505092915050565b5f610120820190506118005f83018c61122d565b8181036020830152611812818b61128e565b90508181036040830152611826818a61128e565b9050611835606083018961122d565b611842608083018861122d565b81810360a08301526118548187611591565b905081810360c08301526118688186611779565b905081810360e083015261187c8185611779565b90508181036101008301526118918184611591565b90509a9950505050505050505050565b7f456c656374696f6e206e6f7420666f756e6400000000000000000000000000005f82015250565b5f6118d5601283611246565b91506118e0826118a1565b602082019050919050565b5f6020820190508181035f830152611902816118c9565b9050919050565b7f4e487b71000000000000000000000000000000000000000000000000000000005f52602260045260245ffd5b5f600282049050600182168061194d57607f821691505b6020821081036119605761195f611909565b5b50919050565b7f4e6f7420617574686f72697a65640000000000000000000000000000000000005f82015250565b5f61199a600e83611246565b91506119a582611966565b602082019050919050565b5f6020820190508181035f8301526119c78161198e565b9050919050565b7f4e487b71000000000000000000000000000000000000000000000000000000005f52601160045260245ffd5b5f611a05826110f1565b91507fffffffffffffffffffffffffffffffffffffffffffffffffffffffffffffffff8203611a3757611a366119ce565b5b600182019050919050565b5f819050815f5260205f209050919050565b5f6020601f8301049050919050565b5f82821b905092915050565b5f60088302611a9e7fffffffffffffffffffffffffffffffffffffffffffffffffffffffffffffffff82611a63565b611aa88683611a63565b95508019841693508086168417925050509392505050565b5f819050919050565b5f611ae3611ade611ad9846110f1565b611ac0565b6110f1565b9050919050565b5f819050919050565b611afc83611ac9565b611b10611b0882611aea565b848454611a6f565b825550505050565b5f90565b611b24611b18565b611b2f818484611af3565b505050565b5b81811015611b5257611b475f82611b1c565b600181019050611b35565b5050565b601f821115611b9757611b6881611a42565b611b7184611a54565b81016020851015611b80578190505b611b94611b8c85611a54565b830182611b34565b50505b505050565b5f82821c905092915050565b5f611bb75f1984600802611b9c565b1980831691505092915050565b5f611bcf8383611ba8565b9150826002028217905092915050565b611be88261123c565b67ffffffffffffffff811115611c0157611c00611323565b5b611c0b8254611936565b611c16828285611b56565b5f60209050601f831160018114611c47575f8415611c35578287015190505b611c3f8582611bc4565b865550611ca6565b601f198416611c5586611a42565b5f5b82811015611c7c57848901518255600182019150602085019450602081019050611c57565b86831015611c995784890151611c95601f891682611ba8565b8355505b6001600288020188555050505b505050505050565b5f6020820190508181035f830152611cc6818461128e565b905092915050565b7f416c726561647920766f74656420696e207468697320656c656374696f6e00005f82015250565b5f611d02601e83611246565b9150611d0d82611cce565b602082019050919050565b5f6020820190508181035f830152611d2f81611cf6565b9050919050565b7f496e76616c69642063616e6469646174650000000000000000000000000000005f82015250565b5f611d6a601183611246565b9150611d7582611d36565b602082019050919050565b5f6020820190508181035f830152611d9781611d5e565b9050919050565b5f6040820190508181035f830152611db6818561128e565b90508181036020830152611dca818461128e565b90509392505050565b7f4e487b71000000000000000000000000000000000000000000000000000000005f52603260045260245ffdfea26469706673582212201d3aee2f8023409a10cde77bebb6d51d20db3faf6a149eed9609adfeaa7fd50864736f6c63430008150033",
  "immutableReferences": {},
  "source": "// SPDX-License-Identifier: MIT\npragma solidity ^0.8.0;\n\ncontract Voting {\n    struct Candidate {\n        uint id;\n        string name;\n        string seat;\n        uint voteCount;\n    }\n\n    struct Election {\n        uint id;\n        string title;\n        string description;\n        uint startsAt;\n        uint endsAt;\n        uint[] candidateIds;\n        mapping(uint => Candidate) candidates;\n        mapping(address => bool) hasVoted; // per-election voter record\n        uint candidatesCount;\n        bool exists;\n    }\n\n    mapping(uint => Election) private elections;\n    uint public electionsCount;\n    address public owner;\n    uint public version = 1; // contract version placeholder\n\n    event ElectionCreated(uint indexed electionId, string title);\n    event CandidateAdded(uint indexed electionId, uint indexed candidateId, string name, string seat);\n    event VoteCast(uint indexed electionId, uint indexed candidateId, address indexed voter);\n\n    modifier onlyOwner() {\n        require(msg.sender == owner, \"Not authorized\");\n        _;\n    }\n\n    constructor() {\n        owner = msg.sender;\n    }\n\n    function createElection(string memory _title, string memory _description, uint _startsAt, uint _endsAt) public onlyOwner returns (uint) {\n        electionsCount++;\n        Election storage e = elections[electionsCount];\n        e.id = electionsCount;\n        e.title = _title;\n        e.description = _description;\n        e.startsAt = _startsAt;\n        e.endsAt = _endsAt;\n        e.exists = true;\n        emit ElectionCreated(electionsCount, _title);\n        return electionsCount;\n    }\n\n    // Add candidate with seat information\n    function addCandidate(uint _electionId, string memory _name, string memory _seat) public onlyOwner returns (uint) {\n        require(elections[_electionId].exists, \"Election not found\");\n        Election storage e = elections[_electionId];\n        e.candidatesCount++;\n        uint cid = e.candidatesCount;\n        e.candidates[cid] = Candidate(cid, _name, _seat, 0);\n        e.candidateIds.push(cid);\n        emit CandidateAdded(_electionId, cid, _name, _seat);\n        return cid;\n    }\n\n    function vote(uint _electionId, uint _candidateId) public {\n        require(elections[_electionId].exists, \"Election not found\");\n        Election storage e = elections[_electionId];\n        require(!e.hasVoted[msg.sender], \"Already voted in this election\");\n        require(_candidateId > 0 && _candidateId <= e.candidatesCount, \"Invalid candidate\");\n        e.hasVoted[msg.sender] = true;\n        e.candidates[_candidateId].voteCount++;\n        emit VoteCast(_electionId, _candidateId, msg.sender);\n    }\n\n    // getters\n    function getElection(uint _electionId) public view returns (uint id, string memory title, string memory description, uint startsAt, uint endsAt, uint[] memory candidateIds) {\n        require(elections[_electionId].exists, \"Election not found\");\n        Election storage e = elections[_electionId];\n        return (e.id, e.title, e.description, e.startsAt, e.endsAt, e.candidateIds);\n    }\n\n    // Return detailed election including candidate names, seats and vote counts\n    function getElectionDetails(uint _electionId) public view returns (\n        uint id,\n        string memory title,\n        string memory description,\n        uint startsAt,\n        uint endsAt,\n        uint[] memory candidateIds,\n        string[] memory names,\n        string[] memory seats,\n        uint[] memory voteCounts\n    ) {\n        require(elections[_electionId].exists, \"Election not found\");\n        Election storage e = elections[_electionId];\n        uint len = e.candidateIds.length;\n        names = new string[](len);\n        seats = new string[](len);\n        voteCounts = new uint[](len);\n        for (uint i = 0; i < len; i++) {\n            uint cid = e.candidateIds[i];\n            Candidate storage c = e.candidates[cid];\n            names[i] = c.name;\n            seats[i] = c.seat;\n            voteCounts[i] = c.voteCount;\n        }\n        return (e.id, e.title, e.description, e.startsAt, e.endsAt, e.candidateIds, names, seats, voteCounts);\n    }\n\n    function getCandidate(uint _electionId, uint _candidateId) public view returns (uint id, string memory name, uint voteCount) {\n        require(elections[_electionId].exists, \"Election not found\");\n        Election storage e = elections[_electionId];\n        Candidate storage c = e.candidates[_candidateId];\n        return (c.id, c.name, c.voteCount);\n    }\n\n    function hasVotedIn(uint _electionId, address _voter) public view returns (bool) {\n        require(elections[_electionId].exists, \"Election not found\");\n        return elections[_electionId].hasVoted[_voter];\n    }\n}\n",
  "sourcePath": "/home/timothy/Desktop/Blockchain-Voting-System/blockchain/contracts/Voting.sol",
  "compiler": {
    "name": "solc",
    "version": "0.8.21+commit.d9974bed.Emscripten.clang"
  },
  "schemaVersion": "3.4.16",
  "updatedAt": "2025-10-13T06:01:15.017Z",
  "devdoc": {
    "kind": "dev",
    "methods": {},
    "version": 1
  },
  "userdoc": {
    "kind": "user",
    "methods": {},
    "version": 1
  }
}