{
  "contractName": "Voting",
  "abi": [
    {
      "inputs": [],
      "stateMutability": "nonpayable",
      "type": "constructor"
    },
    {
      "anonymous": false,
      "inputs": [
        {
          "indexed": false,
          "internalType": "uint256",
          "name": "candidateId",
          "type": "uint256"
        },
        {
          "indexed": false,
          "internalType": "string",
          "name": "name",
          "type": "string"
        }
      ],
      "name": "CandidateAdded",
      "type": "event"
    },
    {
      "anonymous": false,
      "inputs": [
        {
          "indexed": true,
          "internalType": "address",
          "name": "voter",
          "type": "address"
        },
        {
          "indexed": false,
          "internalType": "uint256",
          "name": "candidateId",
          "type": "uint256"
        }
      ],
      "name": "Voted",
      "type": "event"
    },
    {
      "inputs": [
        {
          "internalType": "uint256",
          "name": "",
          "type": "uint256"
        }
      ],
      "name": "candidates",
      "outputs": [
        {
          "internalType": "uint256",
          "name": "id",
          "type": "uint256"
        },
        {
          "internalType": "string",
          "name": "name",
          "type": "string"
        },
        {
          "internalType": "uint256",
          "name": "voteCount",
          "type": "uint256"
        }
      ],
      "stateMutability": "view",
      "type": "function"
    },
    {
      "inputs": [],
      "name": "candidatesCount",
      "outputs": [
        {
          "internalType": "uint256",
          "name": "",
          "type": "uint256"
        }
      ],
      "stateMutability": "view",
      "type": "function"
    },
    {
      "inputs": [
        {
          "internalType": "address",
          "name": "",
          "type": "address"
        }
      ],
      "name": "hasVoted",
      "outputs": [
        {
          "internalType": "bool",
          "name": "",
          "type": "bool"
        }
      ],
      "stateMutability": "view",
      "type": "function"
    },
    {
      "inputs": [],
      "name": "owner",
      "outputs": [
        {
          "internalType": "address",
          "name": "",
          "type": "address"
        }
      ],
      "stateMutability": "view",
      "type": "function"
    },
    {
      "inputs": [
        {
          "internalType": "string",
          "name": "_name",
          "type": "string"
        }
      ],
      "name": "addCandidate",
      "outputs": [],
      "stateMutability": "nonpayable",
      "type": "function"
    },
    {
      "inputs": [
        {
          "internalType": "uint256",
          "name": "_candidateId",
          "type": "uint256"
        }
      ],
      "name": "vote",
      "outputs": [],
      "stateMutability": "nonpayable",
      "type": "function"
    },
    {
      "inputs": [
        {
          "internalType": "uint256",
          "name": "_id",
          "type": "uint256"
        }
      ],
      "name": "getCandidate",
      "outputs": [
        {
          "internalType": "uint256",
          "name": "",
          "type": "uint256"
        },
        {
          "internalType": "string",
          "name": "",
          "type": "string"
        },
        {
          "internalType": "uint256",
          "name": "",
          "type": "uint256"
        }
      ],
      "stateMutability": "view",
      "type": "function"
    }
  ],
  "bytecode": "0x608060405234801561000f575f80fd5b503360035f6101000a81548173ffffffffffffffffffffffffffffffffffffffff021916908373ffffffffffffffffffffffffffffffffffffffff160217905550610ec98061005d5f395ff3fe608060405234801561000f575f80fd5b506004361061007b575f3560e01c80633477ee2e116100595780633477ee2e146100e957806335b8e8201461011b578063462e91ec1461014d5780638da5cb5b146101695761007b565b80630121b93f1461007f57806309eef43e1461009b5780632d35a8a2146100cb575b5f80fd5b61009960048036038101906100949190610684565b610187565b005b6100b560048036038101906100b09190610709565b61032e565b6040516100c2919061074e565b60405180910390f35b6100d361034b565b6040516100e09190610776565b60405180910390f35b61010360048036038101906100fe9190610684565b610351565b60405161011293929190610819565b60405180910390f35b61013560048036038101906101309190610684565b6103fc565b60405161014493929190610819565b60405180910390f35b61016760048036038101906101629190610981565b6104dd565b005b61017161061b565b60405161017e91906109d7565b60405180910390f35b60015f3373ffffffffffffffffffffffffffffffffffffffff1673ffffffffffffffffffffffffffffffffffffffff1681526020019081526020015f205f9054906101000a900460ff1615610211576040517f08c379a000000000000000000000000000000000000000000000000000000000815260040161020890610a3a565b60405180910390fd5b5f8111801561022257506002548111155b610261576040517f08c379a000000000000000000000000000000000000000000000000000000000815260040161025890610aa2565b60405180910390fd5b6001805f3373ffffffffffffffffffffffffffffffffffffffff1673ffffffffffffffffffffffffffffffffffffffff1681526020019081526020015f205f6101000a81548160ff0219169083151502179055505f808281526020019081526020015f206002015f8154809291906102d890610aed565b91905055503373ffffffffffffffffffffffffffffffffffffffff167f4d99b957a2bc29a30ebd96a7be8e68fe50a3c701db28a91436490b7d53870ca4826040516103239190610776565b60405180910390a250565b6001602052805f5260405f205f915054906101000a900460ff1681565b60025481565b5f602052805f5260405f205f91509050805f01549080600101805461037590610b61565b80601f01602080910402602001604051908101604052809291908181526020018280546103a190610b61565b80156103ec5780601f106103c3576101008083540402835291602001916103ec565b820191905f5260205f20905b8154815290600101906020018083116103cf57829003601f168201915b5050505050908060020154905083565b5f60605f805f808681526020019081526020015f206040518060600160405290815f820154815260200160018201805461043590610b61565b80601f016020809104026020016040519081016040528092919081815260200182805461046190610b61565b80156104ac5780601f10610483576101008083540402835291602001916104ac565b820191905f5260205f20905b81548152906001019060200180831161048f57829003601f168201915b505050505081526020016002820154815250509050805f015181602001518260400151935093509350509193909250565b60035f9054906101000a900473ffffffffffffffffffffffffffffffffffffffff1673ffffffffffffffffffffffffffffffffffffffff163373ffffffffffffffffffffffffffffffffffffffff161461056c576040517f08c379a000000000000000000000000000000000000000000000000000000000815260040161056390610bdb565b60405180910390fd5b60025f81548092919061057e90610aed565b9190505550604051806060016040528060025481526020018281526020015f8152505f8060025481526020019081526020015f205f820151815f015560208201518160010190816105cf9190610d96565b50604082015181600201559050507fe83b2a43e7e82d975c8a0a6d2f045153c869e111136a34d1889ab7b598e396a360025482604051610610929190610e65565b60405180910390a150565b60035f9054906101000a900473ffffffffffffffffffffffffffffffffffffffff1681565b5f604051905090565b5f80fd5b5f80fd5b5f819050919050565b61066381610651565b811461066d575f80fd5b50565b5f8135905061067e8161065a565b92915050565b5f6020828403121561069957610698610649565b5b5f6106a684828501610670565b91505092915050565b5f73ffffffffffffffffffffffffffffffffffffffff82169050919050565b5f6106d8826106af565b9050919050565b6106e8816106ce565b81146106f2575f80fd5b50565b5f81359050610703816106df565b92915050565b5f6020828403121561071e5761071d610649565b5b5f61072b848285016106f5565b91505092915050565b5f8115159050919050565b61074881610734565b82525050565b5f6020820190506107615f83018461073f565b92915050565b61077081610651565b82525050565b5f6020820190506107895f830184610767565b92915050565b5f81519050919050565b5f82825260208201905092915050565b5f5b838110156107c65780820151818401526020810190506107ab565b5f8484015250505050565b5f601f19601f8301169050919050565b5f6107eb8261078f565b6107f58185610799565b93506108058185602086016107a9565b61080e816107d1565b840191505092915050565b5f60608201905061082c5f830186610767565b818103602083015261083e81856107e1565b905061084d6040830184610767565b949350505050565b5f80fd5b5f80fd5b7f4e487b71000000000000000000000000000000000000000000000000000000005f52604160045260245ffd5b610893826107d1565b810181811067ffffffffffffffff821117156108b2576108b161085d565b5b80604052505050565b5f6108c4610640565b90506108d0828261088a565b919050565b5f67ffffffffffffffff8211156108ef576108ee61085d565b5b6108f8826107d1565b9050602081019050919050565b828183375f83830152505050565b5f610925610920846108d5565b6108bb565b90508281526020810184848401111561094157610940610859565b5b61094c848285610905565b509392505050565b5f82601f83011261096857610967610855565b5b8135610978848260208601610913565b91505092915050565b5f6020828403121561099657610995610649565b5b5f82013567ffffffffffffffff8111156109b3576109b261064d565b5b6109bf84828501610954565b91505092915050565b6109d1816106ce565b82525050565b5f6020820190506109ea5f8301846109c8565b92915050565b7f416c726561647920766f746564000000000000000000000000000000000000005f82015250565b5f610a24600d83610799565b9150610a2f826109f0565b602082019050919050565b5f6020820190508181035f830152610a5181610a18565b9050919050565b7f496e76616c69642063616e6469646174650000000000000000000000000000005f82015250565b5f610a8c601183610799565b9150610a9782610a58565b602082019050919050565b5f6020820190508181035f830152610ab981610a80565b9050919050565b7f4e487b71000000000000000000000000000000000000000000000000000000005f52601160045260245ffd5b5f610af782610651565b91507fffffffffffffffffffffffffffffffffffffffffffffffffffffffffffffffff8203610b2957610b28610ac0565b5b600182019050919050565b7f4e487b71000000000000000000000000000000000000000000000000000000005f52602260045260245ffd5b5f6002820490506001821680610b7857607f821691505b602082108103610b8b57610b8a610b34565b5b50919050565b7f4e6f7420617574686f72697a65640000000000000000000000000000000000005f82015250565b5f610bc5600e83610799565b9150610bd082610b91565b602082019050919050565b5f6020820190508181035f830152610bf281610bb9565b9050919050565b5f819050815f5260205f209050919050565b5f6020601f8301049050919050565b5f82821b905092915050565b5f60088302610c557fffffffffffffffffffffffffffffffffffffffffffffffffffffffffffffffff82610c1a565b610c5f8683610c1a565b95508019841693508086168417925050509392505050565b5f819050919050565b5f610c9a610c95610c9084610651565b610c77565b610651565b9050919050565b5f819050919050565b610cb383610c80565b610cc7610cbf82610ca1565b848454610c26565b825550505050565b5f90565b610cdb610ccf565b610ce6818484610caa565b505050565b5b81811015610d0957610cfe5f82610cd3565b600181019050610cec565b5050565b601f821115610d4e57610d1f81610bf9565b610d2884610c0b565b81016020851015610d37578190505b610d4b610d4385610c0b565b830182610ceb565b50505b505050565b5f82821c905092915050565b5f610d6e5f1984600802610d53565b1980831691505092915050565b5f610d868383610d5f565b9150826002028217905092915050565b610d9f8261078f565b67ffffffffffffffff811115610db857610db761085d565b5b610dc28254610b61565b610dcd828285610d0d565b5f60209050601f831160018114610dfe575f8415610dec578287015190505b610df68582610d7b565b865550610e5d565b601f198416610e0c86610bf9565b5f5b82811015610e3357848901518255600182019150602085019450602081019050610e0e565b86831015610e505784890151610e4c601f891682610d5f565b8355505b6001600288020188555050505b505050505050565b5f604082019050610e785f830185610767565b8181036020830152610e8a81846107e1565b9050939250505056fea26469706673582212206f3c5732a601a0a3b2d99add6055bb5dded17415913f688df323819fffcc6e7e64736f6c63430008150033",
  "immutableReferences": {},
  "source": "// SPDX-License-Identifier: MIT\r\npragma solidity ^0.8.0;\r\n\r\ncontract Voting {\r\n    struct Candidate {\r\n        uint id;\r\n        string name;\r\n        uint voteCount;\r\n    }\r\n\r\n    mapping(uint => Candidate) public candidates;\r\n    mapping(address => bool) public hasVoted;\r\n\r\n    uint public candidatesCount;\r\n    address public owner;\r\n\r\n    event Voted(address indexed voter, uint candidateId);\r\n    event CandidateAdded(uint candidateId, string name);\r\n\r\n    modifier onlyOwner() {\r\n        require(msg.sender == owner, \"Not authorized\");\r\n        _;\r\n    }\r\n\r\n    constructor() {\r\n        owner = msg.sender;\r\n    }\r\n\r\n    function addCandidate(string memory _name) public onlyOwner {\r\n        candidatesCount++;\r\n        candidates[candidatesCount] = Candidate(candidatesCount, _name, 0);\r\n        emit CandidateAdded(candidatesCount, _name);\r\n    }\r\n\r\n    function vote(uint _candidateId) public {\r\n        require(!hasVoted[msg.sender], \"Already voted\");\r\n        require(_candidateId > 0 && _candidateId <= candidatesCount, \"Invalid candidate\");\r\n\r\n        hasVoted[msg.sender] = true;\r\n        candidates[_candidateId].voteCount++;\r\n        emit Voted(msg.sender, _candidateId);\r\n    }\r\n\r\n    function getCandidate(uint _id) public view returns (uint, string memory, uint) {\r\n        Candidate memory c = candidates[_id];\r\n        return (c.id, c.name, c.voteCount);\r\n    }\r\n}\r\n",
  "sourcePath": "C:\\Users\\tkuri\\OneDrive\\Desktop\\blockchain-voting-system\\blockchain\\contracts\\Voting.sol",
  "compiler": {
    "name": "solc",
    "version": "0.8.21+commit.d9974bed.Emscripten.clang"
  },
  "schemaVersion": "3.4.16",
  "updatedAt": "2025-10-03T13:23:56.216Z",
  "devdoc": {
    "kind": "dev",
    "methods": {},
    "version": 1
  },
  "userdoc": {
    "kind": "user",
    "methods": {},
    "version": 1
  }
}