{
  "contractName": "SimpleVoting",
  "abi": [
    {
      "inputs": [],
      "stateMutability": "nonpayable",
      "type": "constructor"
    },
    {
      "anonymous": false,
      "inputs": [
        {
          "indexed": true,
          "internalType": "uint256",
          "name": "electionId",
          "type": "uint256"
        },
        {
          "indexed": true,
          "internalType": "uint256",
          "name": "candidateId",
          "type": "uint256"
        },
        {
          "indexed": false,
          "internalType": "string",
          "name": "name",
          "type": "string"
        }
      ],
      "name": "CandidateAdded",
      "type": "event"
    },
    {
      "anonymous": false,
      "inputs": [
        {
          "indexed": true,
          "internalType": "uint256",
          "name": "electionId",
          "type": "uint256"
        },
        {
          "indexed": false,
          "internalType": "string",
          "name": "title",
          "type": "string"
        }
      ],
      "name": "ElectionCreated",
      "type": "event"
    },
    {
      "anonymous": false,
      "inputs": [
        {
          "indexed": true,
          "internalType": "uint256",
          "name": "electionId",
          "type": "uint256"
        },
        {
          "indexed": true,
          "internalType": "uint256",
          "name": "candidateId",
          "type": "uint256"
        },
        {
          "indexed": false,
          "internalType": "bytes32",
          "name": "receipt",
          "type": "bytes32"
        }
      ],
      "name": "VoteCast",
      "type": "event"
    },
    {
      "anonymous": false,
      "inputs": [
        {
          "indexed": true,
          "internalType": "uint256",
          "name": "electionId",
          "type": "uint256"
        },
        {
          "indexed": true,
          "internalType": "address",
          "name": "voter",
          "type": "address"
        }
      ],
      "name": "VoterRegistered",
      "type": "event"
    },
    {
      "inputs": [
        {
          "internalType": "uint256",
          "name": "",
          "type": "uint256"
        }
      ],
      "name": "elections",
      "outputs": [
        {
          "internalType": "uint256",
          "name": "id",
          "type": "uint256"
        },
        {
          "internalType": "string",
          "name": "title",
          "type": "string"
        },
        {
          "internalType": "string",
          "name": "description",
          "type": "string"
        },
        {
          "internalType": "uint256",
          "name": "startsAt",
          "type": "uint256"
        },
        {
          "internalType": "uint256",
          "name": "endsAt",
          "type": "uint256"
        },
        {
          "internalType": "uint256",
          "name": "candidatesCount",
          "type": "uint256"
        },
        {
          "internalType": "bool",
          "name": "exists",
          "type": "bool"
        },
        {
          "internalType": "bool",
          "name": "votingEnabled",
          "type": "bool"
        },
        {
          "internalType": "uint256",
          "name": "totalVotes",
          "type": "uint256"
        }
      ],
      "stateMutability": "view",
      "type": "function",
      "constant": true
    },
    {
      "inputs": [],
      "name": "electionsCount",
      "outputs": [
        {
          "internalType": "uint256",
          "name": "",
          "type": "uint256"
        }
      ],
      "stateMutability": "view",
      "type": "function",
      "constant": true
    },
    {
      "inputs": [],
      "name": "owner",
      "outputs": [
        {
          "internalType": "address",
          "name": "",
          "type": "address"
        }
      ],
      "stateMutability": "view",
      "type": "function",
      "constant": true
    },
    {
      "inputs": [
        {
          "internalType": "string",
          "name": "_title",
          "type": "string"
        },
        {
          "internalType": "string",
          "name": "_description",
          "type": "string"
        },
        {
          "internalType": "uint256",
          "name": "_startsAt",
          "type": "uint256"
        },
        {
          "internalType": "uint256",
          "name": "_endsAt",
          "type": "uint256"
        }
      ],
      "name": "createElection",
      "outputs": [
        {
          "internalType": "uint256",
          "name": "",
          "type": "uint256"
        }
      ],
      "stateMutability": "nonpayable",
      "type": "function"
    },
    {
      "inputs": [
        {
          "internalType": "uint256",
          "name": "_electionId",
          "type": "uint256"
        },
        {
          "internalType": "address",
          "name": "_voter",
          "type": "address"
        }
      ],
      "name": "registerVoter",
      "outputs": [],
      "stateMutability": "nonpayable",
      "type": "function"
    },
    {
      "inputs": [
        {
          "internalType": "uint256",
          "name": "_electionId",
          "type": "uint256"
        },
        {
          "internalType": "string",
          "name": "_name",
          "type": "string"
        }
      ],
      "name": "addCandidate",
      "outputs": [],
      "stateMutability": "nonpayable",
      "type": "function"
    },
    {
      "inputs": [
        {
          "internalType": "uint256",
          "name": "_electionId",
          "type": "uint256"
        }
      ],
      "name": "enableVoting",
      "outputs": [],
      "stateMutability": "nonpayable",
      "type": "function"
    },
    {
      "inputs": [
        {
          "internalType": "uint256",
          "name": "_electionId",
          "type": "uint256"
        },
        {
          "internalType": "uint256",
          "name": "_candidateId",
          "type": "uint256"
        }
      ],
      "name": "castVote",
      "outputs": [],
      "stateMutability": "nonpayable",
      "type": "function"
    },
    {
      "inputs": [
        {
          "internalType": "uint256",
          "name": "_electionId",
          "type": "uint256"
        }
      ],
      "name": "getElection",
      "outputs": [
        {
          "internalType": "uint256",
          "name": "id",
          "type": "uint256"
        },
        {
          "internalType": "string",
          "name": "title",
          "type": "string"
        },
        {
          "internalType": "string",
          "name": "description",
          "type": "string"
        },
        {
          "internalType": "uint256",
          "name": "startsAt",
          "type": "uint256"
        },
        {
          "internalType": "uint256",
          "name": "endsAt",
          "type": "uint256"
        },
        {
          "internalType": "uint256",
          "name": "candidatesCount",
          "type": "uint256"
        },
        {
          "internalType": "bool",
          "name": "votingEnabled",
          "type": "bool"
        },
        {
          "internalType": "uint256",
          "name": "totalVotes",
          "type": "uint256"
        }
      ],
      "stateMutability": "view",
      "type": "function",
      "constant": true
    },
    {
      "inputs": [
        {
          "internalType": "uint256",
          "name": "_electionId",
          "type": "uint256"
        },
        {
          "internalType": "uint256",
          "name": "_candidateId",
          "type": "uint256"
        }
      ],
      "name": "getCandidate",
      "outputs": [
        {
          "internalType": "uint256",
          "name": "id",
          "type": "uint256"
        },
        {
          "internalType": "string",
          "name": "name",
          "type": "string"
        },
        {
          "internalType": "uint256",
          "name": "voteCount",
          "type": "uint256"
        }
      ],
      "stateMutability": "view",
      "type": "function",
      "constant": true
    },
    {
      "inputs": [
        {
          "internalType": "uint256",
          "name": "_electionId",
          "type": "uint256"
        },
        {
          "internalType": "address",
          "name": "_voter",
          "type": "address"
        }
      ],
      "name": "hasVotedIn",
      "outputs": [
        {
          "internalType": "bool",
          "name": "",
          "type": "bool"
        }
      ],
      "stateMutability": "view",
      "type": "function",
      "constant": true
    },
    {
      "inputs": [
        {
          "internalType": "uint256",
          "name": "_electionId",
          "type": "uint256"
        },
        {
          "internalType": "address",
          "name": "_voter",
          "type": "address"
        }
      ],
      "name": "isVoterRegistered",
      "outputs": [
        {
          "internalType": "bool",
          "name": "",
          "type": "bool"
        }
      ],
      "stateMutability": "view",
      "type": "function",
      "constant": true
    }
  ],
  "bytecode": "0x608060405234801561001057600080fd5b50600580546001600160a01b031916331790556112d7806100326000396000f3fe608060405234801561001057600080fd5b50600436106100b45760003560e01c80637ad36e84116100715780637ad36e84146101665780638da5cb5b1461018757806394c790bb146101b25780639a74c695146101c55780639d710777146101ce578063adf824c6146101f557600080fd5b80630973389c146100b95780631750a3d0146100e15780632c0a3f89146100f6578063394eaa8f146101095780634bd464481461011c5780635e6fef011461013e575b600080fd5b6100cc6100c7366004610dbe565b610208565b60405190151581526020015b60405180910390f35b6100f46100ef366004610e9d565b61026e565b005b6100f4610104366004610ee4565b61038b565b6100cc610117366004610dbe565b6106b8565b61012f61012a366004610ee4565b610715565b6040516100d893929190610f4c565b61015161014c366004610f75565b610811565b6040516100d899989796959493929190610f8e565b610179610174366004610ff3565b610970565b6040519081526020016100d8565b60055461019a906001600160a01b031681565b6040516001600160a01b0390911681526020016100d8565b6100f46101c0366004610dbe565b610a57565b61017960045481565b6101e16101dc366004610f75565b610b83565b6040516100d8989796959493929190611067565b6100f4610203366004610f75565b610d40565b60008281526020819052604081206006015460ff166102425760405162461bcd60e51b8152600401610239906110c3565b60405180910390fd5b5060009182526002602090815260408084206001600160a01b0393909316845291905290205460ff1690565b6005546001600160a01b031633146102985760405162461bcd60e51b8152600401610239906110ef565b600082815260208190526040902060060154829060ff166102cb5760405162461bcd60e51b8152600401610239906110c3565b600083815260208190526040812060058101805491926102ea83611117565b9091555050600581015460408051606081018252828152602080820187815260008385018190528981526001808452858220878352909352939093208251815592519192919082019061033d90826111c7565b506040820151816002015590505080857fed8911b3df733b7d5f75724158e54478ea12e30f49c9d31b5261879f5b76586f8660405161037c9190611287565b60405180910390a35050505050565b600082815260208190526040902060060154829060ff166103be5760405162461bcd60e51b8152600401610239906110c3565b6000838152600360209081526040808320338452909152902054839060ff166104205760405162461bcd60e51b8152602060048201526014602482015273159bdd195c881b9bdd081c9959da5cdd195c995960621b6044820152606401610239565b60008481526020819052604090206006810154610100900460ff1661047f5760405162461bcd60e51b8152602060048201526015602482015274159bdd1a5b99c81a5cc81b9bdd08195b98589b1959605a1b6044820152606401610239565b600085815260026020908152604080832033845290915290205460ff16156104e95760405162461bcd60e51b815260206004820152601e60248201527f416c726561647920766f74656420696e207468697320656c656374696f6e00006044820152606401610239565b6000841180156104fd575080600501548411155b61053d5760405162461bcd60e51b8152602060048201526011602482015270496e76616c69642063616e64696461746560781b6044820152606401610239565b80600301544210156105915760405162461bcd60e51b815260206004820152601860248201527f456c656374696f6e20686173206e6f74207374617274656400000000000000006044820152606401610239565b80600401544211156105da5760405162461bcd60e51b8152602060048201526012602482015271115b1958dd1a5bdb881a185cc8195b99195960721b6044820152606401610239565b60008581526002602081815260408084203385528252808420805460ff19166001908117909155898552825280842088855290915282200180549161061e83611117565b909155505060078101805490600061063583611117565b9091555050604080516020810187905290810185905243606082015242608082015260009060a00160405160208183030381529060405280519060200120905084867f96c313364ec07441c94195f44ed1e5f2656059c98a7c0c68466dac90c6fd8bf9836040516106a891815260200190565b60405180910390a3505050505050565b60008281526020819052604081206006015460ff166106e95760405162461bcd60e51b8152600401610239906110c3565b5060009182526003602090815260408084206001600160a01b0393909316845291905290205460ff1690565b600082815260208190526040812060060154606090829060ff1661074b5760405162461bcd60e51b8152600401610239906110c3565b60008581526001602081815260408084208885529091529091208054600282015492820180549293919290919082906107839061113e565b80601f01602080910402602001604051908101604052809291908181526020018280546107af9061113e565b80156107fc5780601f106107d1576101008083540402835291602001916107fc565b820191906000526020600020905b8154815290600101906020018083116107df57829003601f168201915b50505050509150935093509350509250925092565b600060208190529081526040902080546001820180549192916108339061113e565b80601f016020809104026020016040519081016040528092919081815260200182805461085f9061113e565b80156108ac5780601f10610881576101008083540402835291602001916108ac565b820191906000526020600020905b81548152906001019060200180831161088f57829003601f168201915b5050505050908060020180546108c19061113e565b80601f01602080910402602001604051908101604052809291908181526020018280546108ed9061113e565b801561093a5780601f1061090f5761010080835404028352916020019161093a565b820191906000526020600020905b81548152906001019060200180831161091d57829003601f168201915b505050600384015460048501546005860154600687015460079097015495969295919450925060ff808316926101009004169089565b6005546000906001600160a01b0316331461099d5760405162461bcd60e51b8152600401610239906110ef565b600480549060006109ad83611117565b90915550506004546000818152602081905260409020908155600181016109d487826111c7565b50600281016109e386826111c7565b5060038101849055600480820184905560068201805461ffff191660011790556000600783018190556005830155546040517f52be7c4e77b4de76b7607d621492061fe13b58597e72dfb5e51ab8f6187ed14190610a42908990611287565b60405180910390a25050600454949350505050565b6005546001600160a01b03163314610a815760405162461bcd60e51b8152600401610239906110ef565b600082815260208190526040902060060154829060ff16610ab45760405162461bcd60e51b8152600401610239906110c3565b60008381526003602090815260408083206001600160a01b038616845290915290205460ff1615610b275760405162461bcd60e51b815260206004820152601860248201527f566f74657220616c7265616479207265676973746572656400000000000000006044820152606401610239565b60008381526003602090815260408083206001600160a01b0386168085529252808320805460ff1916600117905551909185917ff45b8429c36d478f9a6d081c4811a819b98aa5b608588bed9d406405cf2824739190a3505050565b60008181526020819052604081206006015460609081908390819081908190819060ff16610bc35760405162461bcd60e51b8152600401610239906110c3565b60008060008b81526020019081526020016000209050806000015481600101826002018360030154846004015485600501548660060160019054906101000a900460ff168760070154868054610c189061113e565b80601f0160208091040260200160405190810160405280929190818152602001828054610c449061113e565b8015610c915780601f10610c6657610100808354040283529160200191610c91565b820191906000526020600020905b815481529060010190602001808311610c7457829003601f168201915b50505050509650858054610ca49061113e565b80601f0160208091040260200160405190810160405280929190818152602001828054610cd09061113e565b8015610d1d5780601f10610cf257610100808354040283529160200191610d1d565b820191906000526020600020905b815481529060010190602001808311610d0057829003601f168201915b505050505095509850985098509850985098509850985050919395975091939597565b6005546001600160a01b03163314610d6a5760405162461bcd60e51b8152600401610239906110ef565b600081815260208190526040902060060154819060ff16610d9d5760405162461bcd60e51b8152600401610239906110c3565b506000908152602081905260409020600601805461ff001916610100179055565b60008060408385031215610dd157600080fd5b8235915060208301356001600160a01b0381168114610def57600080fd5b809150509250929050565b634e487b7160e01b600052604160045260246000fd5b600082601f830112610e2157600080fd5b813567ffffffffffffffff80821115610e3c57610e3c610dfa565b604051601f8301601f19908116603f01168101908282118183101715610e6457610e64610dfa565b81604052838152866020858801011115610e7d57600080fd5b836020870160208301376000602085830101528094505050505092915050565b60008060408385031215610eb057600080fd5b82359150602083013567ffffffffffffffff811115610ece57600080fd5b610eda85828601610e10565b9150509250929050565b60008060408385031215610ef757600080fd5b50508035926020909101359150565b6000815180845260005b81811015610f2c57602081850181015186830182015201610f10565b506000602082860101526020601f19601f83011685010191505092915050565b838152606060208201526000610f656060830185610f06565b9050826040830152949350505050565b600060208284031215610f8757600080fd5b5035919050565b60006101208b8352806020840152610fa88184018c610f06565b90508281036040840152610fbc818b610f06565b60608401999099525050608081019590955260a085019390935290151560c0840152151560e0830152610100909101529392505050565b6000806000806080858703121561100957600080fd5b843567ffffffffffffffff8082111561102157600080fd5b61102d88838901610e10565b9550602087013591508082111561104357600080fd5b5061105087828801610e10565b949794965050505060408301359260600135919050565b60006101008a83528060208401526110818184018b610f06565b90508281036040840152611095818a610f06565b60608401989098525050608081019490945260a0840192909252151560c083015260e0909101529392505050565b602080825260129082015271115b1958dd1a5bdb881b9bdd08199bdd5b9960721b604082015260600190565b6020808252600e908201526d139bdd08185d5d1a1bdc9a5e995960921b604082015260600190565b60006001820161113757634e487b7160e01b600052601160045260246000fd5b5060010190565b600181811c9082168061115257607f821691505b60208210810361117257634e487b7160e01b600052602260045260246000fd5b50919050565b601f8211156111c257600081815260208120601f850160051c8101602086101561119f5750805b601f850160051c820191505b818110156111be578281556001016111ab565b5050505b505050565b815167ffffffffffffffff8111156111e1576111e1610dfa565b6111f5816111ef845461113e565b84611178565b602080601f83116001811461122a57600084156112125750858301515b600019600386901b1c1916600185901b1785556111be565b600085815260208120601f198616915b828110156112595788860151825594840194600190910190840161123a565b50858210156112775787850151600019600388901b60f8161c191681555b5050505050600190811b01905550565b60208152600061129a6020830184610f06565b939250505056fea2646970667358221220277c28c62206d5a7f817e227765e8ab6bda6b8dfa42215df275e539d0495dbf564736f6c63430008150033",
  "immutableReferences": {},
  "source": "// SPDX-License-Identifier: MIT\npragma solidity ^0.8.0;\n\ncontract SimpleVoting {\n    struct Candidate {\n        uint id;\n        string name;\n        uint voteCount;\n    }\n\n    struct Election {\n        uint id;\n        string title;\n        string description;\n        uint startsAt;\n        uint endsAt;\n        uint candidatesCount;\n        bool exists;\n        bool votingEnabled;\n        uint totalVotes;\n    }\n\n    mapping(uint => Election) public elections;\n    mapping(uint => mapping(uint => Candidate)) private candidates; // electionId => candidateId => Candidate\n    mapping(uint => mapping(address => bool)) private hasVoted; // electionId => voter => hasVoted\n    mapping(uint => mapping(address => bool)) private registeredVoters; // electionId => voter => isRegistered\n    \n    uint public electionsCount;\n    address public owner;\n\n    event ElectionCreated(uint indexed electionId, string title);\n    event CandidateAdded(uint indexed electionId, uint indexed candidateId, string name);\n    // Do not emit wallet address to preserve anonymity; emit a deterministic receipt instead\n    event VoteCast(uint indexed electionId, uint indexed candidateId, bytes32 receipt);\n    event VoterRegistered(uint indexed electionId, address indexed voter);\n\n    modifier onlyOwner() {\n        require(msg.sender == owner, \"Not authorized\");\n        _;\n    }\n\n    modifier electionExists(uint _electionId) {\n        require(elections[_electionId].exists, \"Election not found\");\n        _;\n    }\n\n    modifier onlyRegisteredVoter(uint _electionId) {\n        require(registeredVoters[_electionId][msg.sender], \"Voter not registered\");\n        _;\n    }\n\n    constructor() {\n        owner = msg.sender;\n    }\n\n    // Create Election\n    function createElection(string memory _title, string memory _description, uint _startsAt, uint _endsAt) public onlyOwner returns (uint) {\n        electionsCount++;\n        Election storage e = elections[electionsCount];\n        e.id = electionsCount;\n        e.title = _title;\n        e.description = _description;\n        e.startsAt = _startsAt;\n        e.endsAt = _endsAt;\n        e.exists = true;\n        e.votingEnabled = false;\n        e.totalVotes = 0;\n        e.candidatesCount = 0;\n        \n        emit ElectionCreated(electionsCount, _title);\n        return electionsCount;\n    }\n\n    // Register Voter\n    function registerVoter(uint _electionId, address _voter) public onlyOwner electionExists(_electionId) {\n        require(!registeredVoters[_electionId][_voter], \"Voter already registered\");\n        registeredVoters[_electionId][_voter] = true;\n        emit VoterRegistered(_electionId, _voter);\n    }\n\n    // Add Candidate\n    function addCandidate(uint _electionId, string memory _name) public onlyOwner electionExists(_electionId) {\n        Election storage e = elections[_electionId];\n        e.candidatesCount++;\n        uint cid = e.candidatesCount;\n        candidates[_electionId][cid] = Candidate(cid, _name, 0);\n        emit CandidateAdded(_electionId, cid, _name);\n    }\n\n    // Enable Voting\n    function enableVoting(uint _electionId) public onlyOwner electionExists(_electionId) {\n        elections[_electionId].votingEnabled = true;\n    }\n\n    // Cast Vote\n    function castVote(uint _electionId, uint _candidateId) public electionExists(_electionId) onlyRegisteredVoter(_electionId) {\n        Election storage e = elections[_electionId];\n        require(e.votingEnabled, \"Voting is not enabled\");\n        require(!hasVoted[_electionId][msg.sender], \"Already voted in this election\");\n        require(_candidateId > 0 && _candidateId <= e.candidatesCount, \"Invalid candidate\");\n        require(block.timestamp >= e.startsAt, \"Election has not started\");\n        require(block.timestamp <= e.endsAt, \"Election has ended\");\n        \n        hasVoted[_electionId][msg.sender] = true;\n        candidates[_electionId][_candidateId].voteCount++;\n        e.totalVotes++;\n        // Derive a receipt hash on-chain without leaking sender\n        bytes32 receipt = keccak256(abi.encodePacked(_electionId, _candidateId, block.number, block.timestamp));\n        emit VoteCast(_electionId, _candidateId, receipt);\n    }\n\n    // Get Election\n    function getElection(uint _electionId) public view returns (uint id, string memory title, string memory description, uint startsAt, uint endsAt, uint candidatesCount, bool votingEnabled, uint totalVotes) {\n        require(elections[_electionId].exists, \"Election not found\");\n        Election storage e = elections[_electionId];\n        return (e.id, e.title, e.description, e.startsAt, e.endsAt, e.candidatesCount, e.votingEnabled, e.totalVotes);\n    }\n\n    // Get Candidate\n    function getCandidate(uint _electionId, uint _candidateId) public view returns (uint id, string memory name, uint voteCount) {\n        require(elections[_electionId].exists, \"Election not found\");\n        Candidate storage c = candidates[_electionId][_candidateId];\n        return (c.id, c.name, c.voteCount);\n    }\n\n    // Check if voter has voted\n    function hasVotedIn(uint _electionId, address _voter) public view returns (bool) {\n        require(elections[_electionId].exists, \"Election not found\");\n        return hasVoted[_electionId][_voter];\n    }\n\n    // Check if voter is registered\n    function isVoterRegistered(uint _electionId, address _voter) public view returns (bool) {\n        require(elections[_electionId].exists, \"Election not found\");\n        return registeredVoters[_electionId][_voter];\n    }\n}\n",
  "sourcePath": "/home/timothy/Desktop/BlockChainVotingSystem/blockchain/contracts/SimpleVoting.sol",
  "compiler": {
    "name": "solc",
    "version": "0.8.21+commit.d9974bed.Emscripten.clang"
  },
  "schemaVersion": "3.4.16",
  "updatedAt": "2025-10-23T12:54:15.846Z",
  "networkType": "ethereum",
  "devdoc": {
    "kind": "dev",
    "methods": {},
    "version": 1
  },
  "userdoc": {
    "kind": "user",
    "methods": {},
    "version": 1
  }
}